:020000040800F2
:10000000000002209D560008494B00084F4B000895
:10001000554B00085B4B0008614B000800000000D6
:10002000000000000000000000000000674B000816
:10003000754B000800000000834B0008914B00083E
:10004000ED560008ED560008ED560008ED56000884
:10005000ED560008ED560008ED560008ED56000874
:100060009D4B0008AB4B0008ED560008ED5600080C
:10007000ED560008B94B0008ED560008ED56000893
:10008000ED560008ED560008CD4B0008ED5600086F
:10009000ED560008ED560008ED560008ED56000834
:1000A000ED560008ED560008ED560008ED56000824
:1000B000ED560008ED560008F54B0008ED56000817
:1000C000ED560008ED560008ED560008ED56000804
:1000D000ED560008ED560008ED560008ED560008F4
:1000E000ED560008ED560008ED560008ED560008E4
:1000F000ED560008ED560008ED560008ED560008D4
:10010000ED560008ED560008ED560008ED560008C3
:10011000094C0008ED560008ED560008ED560008A1
:10012000ED560008ED5600081D4C0008ED5600087D
:10013000ED5600080000000000000000ED56000829
:10014000ED560008ED560008ED560008ED56000883
:10015000ED560008ED560008ED560008ED56000873
:10016000ED560008ED560008ED560008ED56000863
:10017000ED560008ED5600080000000000000000E9
:08018000ED560008ED560008E1
:1001900010B5054C237833B9044B13B10448AFF3C1
:1001A00000800123237010BDB00400200000000077
:1001B000DC04010808B5034B1BB103490348AFF346
:1001C000008008BD00000000B4040020DC04010829
:1001D00001F0FF01102A2BDB10F0070F08D010F8F8
:1001E000013B013A8B422DD010F0070F42B3F6D1FC
:1001F000F0B441EA012141EA014122F007047FF015
:1002000000070023F0E80256083C85EA010586EA6B
:10021000010685FA47F5A3FA87F586FA47F6A5FAA7
:1002200087F68EB9EED1F0BC01F0FF0102F00702B3
:1002300032B110F8013B013A83EA010313B1F8D15E
:100240000020704701387047002D06BF354603383F
:10025000073815F0010F07D1013015F4807F02BF78
:10026000013015F4C03F0130F0BC0138704700BFC9
:10027000034613F8012B002AFBD1181A01387047E6
:1002800081F0004102E000BF83F0004330B54FEA47
:1002900041044FEA430594EA050F08BF90EA020FB4
:1002A0001FBF54EA000C55EA020C7FEA645C7FEA47
:1002B000655C00F0E2804FEA5454D4EB5555B8BF6A
:1002C0006D420CDD2C4480EA020281EA030382EADB
:1002D000000083EA010180EA020281EA0303362D6D
:1002E00088BF30BD11F0004F4FEA01314FF4801C40
:1002F0004CEA113102D0404261EB410113F0004F52
:100300004FEA03334CEA133302D0524263EB430308
:1003100094EA050F00F0A780A4F10104D5F1200EA6
:100320000DDB02FA0EFC22FA05F2801841F1000101
:1003300003FA0EF2801843FA05F359410EE0A5F1D5
:1003400020050EF1200E012A03FA0EFC28BF4CF006
:10035000020C43FA05F3C01851EBE37101F00045BC
:1003600007D54FF0000EDCF1000C7EEB00006EEBC9
:100370000101B1F5801F1BD3B1F5001F0CD3490853
:100380005FEA30004FEA3C0C04F101044FEA4452AA
:1003900012F5800F80F09A80BCF1004F08BF5FEA31
:1003A000500C50F1000041EB045141EA050130BD11
:1003B0005FEA4C0C404141EB0101013C28BFB1F523
:1003C000801FE9D291F0000F04BF01460020B1FA6E
:1003D00081F308BF2033A3F10B03B3F120020CDA41
:1003E0000C3208DD02F1140CC2F10C0201FA0CF01F
:1003F00021FA02F10CE002F11402D8BFC2F1200C84
:1004000001FA02F120FA0CFCDCBF41EA0C01904039
:10041000E41AA2BF01EB0451294330BD6FEA040482
:100420001F3C1CDA0C340EDC04F11404C4F120026D
:1004300020FA04F001FA02F340EA030021FA04F37F
:1004400045EA030130BDC4F10C04C4F1200220FAD6
:1004500002F001FA04F340EA0300294630BD21FA14
:1004600004F0294630BD94F0000F83F4801306BFDA
:1004700081F480110134013D4EE77FEA645C18BFCE
:100480007FEA655C29D094EA050F08BF90EA020F65
:1004900005D054EA000C04BF1946104630BD91EA5D
:1004A000030F1EBF0021002030BD5FEA545C05D160
:1004B0004000494128BF41F0004130BD14F580049F
:1004C0003CBF01F5801130BD01F0004545F0FE4113
:1004D00041F470014FF0000030BD7FEA645C1ABF48
:1004E000194610467FEA655C1CBF0B46024650EA7F
:1004F000013406BF52EA033591EA030F41F40021AB
:1005000030BD00BF90F0000F04BF0021704730B530
:100510004FF4806404F132044FF000054FF0000105
:1005200050E700BF90F0000F04BF0021704730B5C6
:100530004FF4806404F1320410F0004548BF40429B
:100540004FF000013EE700BF42004FEAE2014FEAF0
:1005500031014FEA02701FBF12F07F4393F07F4FCB
:1005600081F06051704732F07F4208BF704793F0CE
:100570007F4F04BF41F40021704730B54FF46074E1
:1005800001F0004521F000411CE700BF50EA0102E4
:1005900008BF704730B54FF000050AE050EA01028D
:1005A00008BF704730B511F0004502D5404261EBFD
:1005B00041014FF4806404F132045FEA915C3FF43E
:1005C000D8AE4FF003025FEADC0C18BF03325FEADB
:1005D000DC0C18BF033202EBDC02C2F1200300FA8C
:1005E00003FC20FA02F001FA03FE40EA0E0021FAB1
:1005F00002F11444BDE600BF70B54FF0FF0C4CF49F
:10060000E06C1CEA11541DBF1CEA135594EA0C0F50
:1006100095EA0C0F00F0DEF82C4481EA030621EA8B
:100620004C5123EA4C5350EA013518BF52EA0335C6
:1006300041F4801143F4801338D0A0FB02CE4FF078
:100640000005E1FB02E506F00042E0FB03E54FF0A8
:100650000006E1FB03569CF0000F18BF4EF0010EA0
:10066000A4F1FF04B6F5007F64F5407404D25FEA9C
:100670004E0E6D4146EB060642EAC62141EA55514F
:100680004FEAC52040EA5E504FEACE2EB4F1FD0C91
:1006900088BFBCF5E06F1ED8BEF1004F08BF5FEA0F
:1006A000500E50F1000041EB045170BD06F00046C1
:1006B00046EA010140EA020081EA0301B4EB5C046E
:1006C000C2BFD4EB0C0541EA045170BD41F4801166
:1006D0004FF0000E013C00F3AB8014F1360FDEBF8B
:1006E000002001F0004170BDC4F10004203C35DA67
:1006F0000C341BDC04F11404C4F1200500FA05F3EA
:1007000020FA04F001FA05F240EA020001F000428A
:1007100021F0004110EBD37021FA04F642EB060100
:100720005EEA430E08BF20EAD37070BDC4F10C042A
:10073000C4F1200500FA04F320FA05F001FA04F2EE
:1007400040EA020001F0004110EBD37041F10001DA
:100750005EEA430E08BF20EAD37070BDC4F12005E5
:1007600000FA05F24EEA020E20FA04F301FA05F24D
:1007700043EA020321FA04F001F0004121FA04F2F5
:1007800020EA020000EBD3705EEA430E08BF20EAC5
:10079000D37070BD94F0000F0FD101F000464000FF
:1007A00041EB010111F4801F08BF013CF7D041EA81
:1007B000060195F0000F18BF704703F00046520085
:1007C00043EB030313F4801F08BF013DF7D043EA56
:1007D0000603704794EA0C0F0CEA135518BF95EA0C
:1007E0000C0F0CD050EA410618BF52EA4306D1D193
:1007F00081EA030101F000414FF0000070BD50EAB2
:10080000410606BF1046194652EA430619D094EA3B
:100810000C0F02D150EA013613D195EA0C0F05D125
:1008200052EA03361CBF104619460AD181EA030179
:1008300001F0004141F0FE4141F470014FF0000031
:1008400070BD41F0FE4141F4780170BD70B54FF0CC
:10085000FF0C4CF4E06C1CEA11541DBF1CEA13554C
:1008600094EA0C0F95EA0C0F00F0A7F8A4EB05042E
:1008700081EA030E52EA03354FEA013100F0888025
:100880004FEA03334FF0805545EA131343EA1263EE
:100890004FEA022245EA111545EA10654FEA0026A3
:1008A0000EF000419D4208BF964244F1FD0404F55C
:1008B000407402D25B084FEA3202B61A65EB0305B8
:1008C0005B084FEA32024FF480104FF4002CB6EB75
:1008D000020E75EB030E22BFB61A754640EA0C00F5
:1008E0005B084FEA3202B6EB020E75EB030E22BF35
:1008F000B61A754640EA5C005B084FEA3202B6EB76
:10090000020E75EB030E22BFB61A754640EA9C0034
:100910005B084FEA3202B6EB020E75EB030E22BF04
:10092000B61A754640EADC0055EA060E18D04FEAC2
:10093000051545EA16754FEA06164FEAC30343EA62
:1009400052734FEAC2025FEA1C1CC0D111F4801F2F
:100950000BD141EA00014FF000004FF0004CB6E728
:1009600011F4801F04BF01430020B4F1FD0C88BFC7
:10097000BCF5E06F3FF6AFAEB5EB030C04BFB6EBD2
:10098000020C5FEA500C50F1000041EB045170BDC5
:100990000EF0004E4EEA113114EB5C04C2BFD4EBF2
:1009A0000C0541EA045170BD41F480114FF0000E76
:1009B000013C90E645EA060E8DE60CEA135594EAF2
:1009C0000C0F08BF95EA0C0F3FF43BAF94EA0C0FF5
:1009D0000AD150EA01347FF434AF95EA0C0F7FF46A
:1009E00025AF104619462CE795EA0C0F06D152EABE
:1009F00003353FF4FDAE1046194622E750EA4106A2
:100A000018BF52EA43067FF4C5AE50EA41047FF4B2
:100A10000DAF52EA43057FF4EBAE12E74FF0FF3C17
:100A200006E000BF4FF0010C02E000BF4FF0010CE8
:100A30004DF804CD4FEA410C7FEA6C5C4FEA430C61
:100A400018BF7FEA6C5C1BD001B050EA410C0CBFB0
:100A500052EA430C91EA030F02BF90EA020F002012
:100A6000704710F1000F91EA030F58BF994208BF79
:100A700090422CBFD8176FEAE37040F00100704736
:100A80004FEA410C7FEA6C5C02D150EA013C07D18D
:100A90004FEA430C7FEA6C5CD6D152EA033CD3D0D8
:100AA0005DF8040B704700BF8446104662468C46D2
:100AB0001946634600E000BF01B5FFF7B7FF002805
:100AC00048BF10F1000F01BD4DF808EDFFF7F4FF2E
:100AD0000CBF012000205DF808FB00BF4DF808EDB9
:100AE000FFF7EAFF34BF012000205DF808FB00BFDC
:100AF0004DF808EDFFF7E0FF94BF012000205DF8FE
:100B000008FB00BF4DF808EDFFF7CEFF94BF0120B2
:100B100000205DF808FB00BF4DF808EDFFF7C4FFAB
:100B200034BF012000205DF808FB00BF4FEA410CF4
:100B30007FEA6C5C02D150EA013C0AD14FEA430CD7
:100B40007FEA6C5C02D152EA033C02D14FF0000014
:100B500070474FF0010070474FEA410212F5001252
:100B600015D211D56FF47873B3EB625212D94FEAF4
:100B7000C12343F0004343EA505311F0004F23FADE
:100B800002F018BF404270474FF00000704750EA33
:100B9000013005D111F0004008BF6FF000407047F0
:100BA0004FF00000704700BF4A0011D212F500124A
:100BB00011D20DD56FF47873B3EB62520ED44FEAB5
:100BC000C12343F0004343EA505323FA02F0704735
:100BD0004FF00000704750EA013002D14FF0FF3073
:100BE00070474FF0000070474FEA4102B2F1E04316
:100BF00024BFB3F5001CDCF1FE5C0DD901F0004C04
:100C00004FEAC0024CEA5070B2F1004F40EB830053
:100C100008BF20F00100704711F0804F21D113F17F
:100C20003872BCBF01F00040704741F480114FEAB8
:100C30005252C2F11802C2F1200C10FA0CF320FA41
:100C400002F018BF40F001004FEAC1234FEAD3235E
:100C500003FA0CFC40EA0C0023FA02F34FEA4303C8
:100C6000CCE77FEA625307D150EA01331EBF4FF051
:100C7000FE4040F44000704701F0004040F0FE406C
:100C800040F40000704700BF53B94AB9002908BFBB
:100C900000281CBF4FF0FF314FF0FF3000F0A6B925
:100CA000ADF1080C6DE904CE00F03CF8DDF804E08D
:100CB000DDE9022304B0704738B500220023044662
:100CC0000D46FFF70BFF28B920462946BDE83840FE
:100CD00000F00AB8204605F1004100F005F8404256
:100CE00061EB410138BD00BFD0B50C4B0022064678
:100CF0000F46FFF781FCFFF757FF0446FFF702FCA2
:100D0000074B0022FFF778FC02460B463046394677
:100D1000FFF7BAFAFFF748FF2146D0BD0000F03DCB
:100D20000000F0412DE9F047089E0D4604460F46AD
:100D3000002B4AD18A42944665D9B2FA82F343B174
:100D400002FA03FCC3F120029F4020FA02F217438B
:100D50009C404FEA1C4E1FFA8CF5B7FBFEF1220CAB
:100D60000EFB117742EA074201FB05F090420AD9D7
:100D70001CEB020201F1FF3780F01C81904240F22F
:100D8000198102396244121AA4B2B2FBFEF00EFBC2
:100D9000102244EA024400FB05F5A5420AD91CEBE7
:100DA000040400F1FF3280F00781A54240F2048183
:100DB0006444023840EA0140641B00211EB1DC405B
:100DC0000023C6E90043BDE8F0878B4208D9002E16
:100DD00000F0ED800021C6E900050846BDE8F08777
:100DE000B3FA83F1002949D1AB4202D3824200F227
:100DF000F880841A65EB030201201746002EE2D02A
:100E0000C6E90047DFE702B9FFDEB2FA82F3002B42
:100E100040F090808A1A4FEA1C471FFA8CFE01218D
:100E2000B2FBF7F507FB1520220C42EA00420EFB4D
:100E300005F0904208D91CEB020205F1FF3802D2FE
:100E4000904200F2CB804546121AA4B2B2FBF7F0F2
:100E500007FB102244EA02440EFB00FEA64508D917
:100E60001CEB040400F1FF3202D2A64500F2BB8065
:100E70001046A4EB0E0440EA05409FE7C1F12007AD
:100E80008B4022FA07FC4CEA030C05FA01F420FA25
:100E900007F3FD404FEA1C492343B5FBF9F81FFA5D
:100EA0008CFE09FB18551C0C44EA054408FB0EF5A2
:100EB000A54202FA01F200FA01F00BD91CEB04047E
:100EC00008F1FF3A80F08880A54240F28580A8F1C1
:100ED00002086444641B9DB2B4FBF9F309FB13449C
:100EE00045EA044403FB0EFEA64508D91CEB0404A6
:100EF00003F1FF356CD2A6456AD9023B644443EA4C
:100F00000843A3FB0295A4EB0E04AC42C846AE46D0
:100F100056D353D056B1B0EB080264EB0E0404FA7A
:100F200007F7CA40CC401743C6E9007418460021B1
:100F3000BDE8F087C3F1200102FA03FC20FA01F2B8
:100F400025FA01F19D402A434FEA1C471FFA8CFE07
:100F5000B1FBF7F007FB1015110C41EA054100FB4E
:100F60000EF58D4204FA03F408D91CEB010100F1DF
:100F7000FF382FD28D422DD902386144491B92B2DD
:100F8000B1FBF7F507FB151142EA014205FB0EF133
:100F9000914208D91CEB020205F1FF3816D29142AA
:100FA00014D9023D6244521A45EA004138E73146FD
:100FB000304608E73946E6E61046FBE64845A9D242
:100FC000B9EB020865EB0C0E013BA3E74546EAE7E7
:100FD0002B4694E74046D1E7D0467BE7023D62448A
:100FE00032E708460AE76444023842E7704700BF28
:100FF00080B483B000AF0346FB800C4B9B689B8D95
:10100000FA889A4203D1094B01221A7108E0084B71
:101010009B689B8DFA889A4202D1054B01221A7176
:1010200000BF0C37BD465DF8047B704730000020E0
:101030007C00002080B582B000AF78600121786824
:1010400000F04CFB4FF4FA7004F0B0FB01230022D7
:101050000221786800F0BEF901230022032178689C
:1010600000F0B8F97B681B7E1946786800F019FC1F
:101070000521786800F080FB7B685B7C1946786806
:1010800000F09CFB0021786800F0E4FB00BF08370B
:10109000BD4680BD80B582B000AF78607B681B79AB
:1010A000012B07D17B6800221A71786800F008F8DC
:1010B000034600E0002318460837BD4680BD000007
:1010C00080B584B000AF78600123FB60002300226C
:1010D0000021786800F07EF90346C3F30A037B81A0
:1010E000002300220121786800F074F90346C3F35D
:1010F0000A033B817B68DB683A8902F00F0292B2F7
:101100009A813B8903F08003002BCCBF012300238D
:10111000DAB27B68DB68DA727B8903F48063002BC8
:10112000CCBF01230023DAB27B68DB681A707B89AD
:1011300003F40073002BCCBF01230023DAB27B68D9
:10114000DB685A707B8903F48073002BCCBF0123CA
:101150000023DAB27B68DB689A707B8903F0800336
:10116000002BCCBF01230023DAB27B68DB68DA7086
:101170007B8903F04003002BCCBF01230023DAB2AC
:101180007B68DB681A717B8903F02003002BCCBFDE
:1011900001230023DAB27B68DB685A717B8903F094
:1011A0001003002BCCBF01230023DAB27B68DB687D
:1011B0009A717B8903F00803002BCCBF0123002325
:1011C000DAB27B68DB68DA717B8903F00403002BF9
:1011D000CCBF01230023DAB27B68DB681A727B89FB
:1011E00003F00203002BCCBF01230023DAB27B689B
:1011F000DB685A727B8903F00103002BCCBF01230B
:101200000023DAB27B68DB689A727B68DB689B89B3
:10121000002B07D17B681B6819465F480AF0A8FEBF
:101220000023FB607B68DB689B89012B0AD97B6804
:1012300019687B68DB689B891A4658480AF098FE53
:101240000023FB607B68DB681B78002B07D07B6882
:101250001B68194652480AF08BFE0023FB607B682E
:10126000DB685B78002B07D07B681B6819464D480C
:101270000AF07EFE0023FB607B68DB689B78002B16
:1012800007D07B681B68194647480AF071FE0023A7
:10129000FB607B68DB68DB78002B07D07B681B6812
:1012A000194642480AF064FE0023FB607B68DB6855
:1012B0001B79002B07D07B681B6819463C480AF055
:1012C00057FE0023FB607B68DB685B79002B07D04F
:1012D0007B681B68194637480AF04AFE0023FB600A
:1012E0007B68DB689B79002B07D07B681B681946FD
:1012F00031480AF03DFE0023FB607B68DB68DB7948
:10130000002B07D07B681B6819462C480AF030FE7A
:101310000023FB607B68DB681B7A002B07D07B68AF
:101320001B68194626480AF023FE0023FB607B68F1
:10133000DB685B7A002B07D07B681B681946214865
:101340000AF016FE0023FB607B68DB689B7A002BAB
:1013500007D07B681B6819461B480AF009FE00236A
:10136000FB607B68DB68DB7A002B07D07B681B683F
:10137000194616480AF0FCFD0023FB60FB68012BB0
:1013800005D17B681B68194611480AF0F1FDFB681E
:1013900018461037BD4680BDF80401082005010835
:1013A000440501086C0501089C050108CC050108ED
:1013B00008060108380601086006010888060108C9
:1013C000B0060108D806010800070108280701082F
:1013D0005807010880B584B000AF78600846114610
:1013E0001A460346FB700B463B801346BB70002336
:1013F000FB81BB78002B05D1FB896FEA43436FEA81
:101400005343FB81FB78DB021BB203F4F0431AB2B7
:10141000B7F90E3013431BB2FB81B7F90030C3F3A9
:101420000A031AB2B7F90E3013431BB2FB817B6873
:101430009B6898687B689B689B890022194606F028
:1014400075FD7B689B6818687B689B689B88002299
:10145000194606F06BFD0F237B7337E07B689B68B2
:1014600098687B689B689B890122194606F05EFD9F
:10147000FA8997F90D3042FA03F303F00103002BC8
:101480000AD07B689B6818697B689B689B8A0122ED
:10149000194606F04BFD09E07B689B6818697B687C
:1014A0009B689B8A0022194606F040FD7B689B687A
:1014B00098687B689B689B890022194606F036FD78
:1014C00097F90D30DBB2013BDBB27B7397F90D303E
:1014D000002BC3DA7B689B6818687B689B689B88D5
:1014E0000122194606F022FD7B689B6818687B681C
:1014F0009B689B880022194606F018FD0023FB819B
:101500000F233B7331E07B689B6898687B689B681E
:101510009B890122194606F009FD7B689B689A6940
:101520007B689B689B8B1946104606F0E7FC0346D8
:10153000012B0AD197F90C30012202FA03F31AB2F7
:10154000B7F90E3013431BB2FB817B689B68986828
:101550007B689B689B890022194606F0E7FC97F997
:101560000C30DBB2013BDBB23B7397F90C30002B44
:10157000C9DA7B689B6818687B689B689B88012236
:10158000194606F0D3FCB7F90E30002B03DA5048A9
:101590000AF054FD96E0FB89DB1203F00F02FB78A2
:1015A0009A4206D0BB78002B03D14A480AF046FD88
:1015B00088E0FB89DB1203F00F03002B06D0BB7819
:1015C000012B03D144480AF039FD7BE0BB78012BA5
:1015D00078D1FB8903F48063002BCCBF0123002367
:1015E000DAB27B68DB681A70FB8903F40073002BA6
:1015F000CCBF01230023DAB27B68DB685A70FB8919
:1016000003F48073002BCCBF01230023DAB27B6884
:10161000DB689A70FB8903F08003002BCCBF0123A9
:101620000023DAB27B68DB68DA70FB8903F04003E1
:10163000002BCCBF01230023DAB27B68DB681A7170
:10164000FB8903F02003002BCCBF01230023DAB277
:101650007B68DB685A71FB8903F01003002BCCBF59
:1016600001230023DAB27B68DB689A71FB8903F0FF
:101670000803002BCCBF01230023DAB27B68DB68B0
:10168000DA71FB8903F00403002BCCBF0123002394
:10169000DAB27B68DB681A72FB8903F00203002B65
:1016A000CCBF01230023DAB27B68DB685A72FB8966
:1016B00003F00103002BCCBF01230023DAB27B68C7
:1016C000DB689A72FB8918461037BD4680BD00BFA3
:1016D0007007010888070108A407010880B582B0D7
:1016E00000AF78600B46FB70FB78012B0DD17B6857
:1016F00001221A747B689B68186A7B689B689B8CC4
:101700000122194606F012FC0CE07B6800221A74D4
:101710007B689B68186A7B689B689B8C00221946D3
:1017200006F004FC00BF0837BD4680BD80B584B01C
:1017300000AF78600023002202217868FFF74AFE9C
:101740000346C3F30A03FB81FB8943F00403FB81D7
:10175000FA89012302217868FFF73CFEFB8923F018
:101760000403FB81FA89012302217868FFF732FE26
:1017700000BF1037BD4680BD80B584B000AF786033
:101780000B46FB700023002202217868FFF722FE3F
:101790000346C3F30A03FB81FB789B011AB2B7F936
:1017A0000E3013431BB2FB81FA89012302217868B2
:1017B000FFF710FE00BF1037BD4680BD80B584B076
:1017C00000AF78600B46FB7000230022032178688D
:1017D000FFF700FE0346C3F30A03FB81FB789B007F
:1017E0001AB2B7F90E3013431BB2FB81FA890123F9
:1017F00003217868FFF7EEFD7B68FA785A747B68FE
:101800005B7C002B03D17B680E4A5A6116E07B6833
:101810005B7C012B03D17B680B4A5A610EE07B682D
:101820005B7C022B03D17B68084A5A6106E07B6827
:101830005B7C032B02D17B68054A5A6100BF1037DD
:10184000BD4680BD000020410000A04100002042B4
:101850000000A04280B584B000AF78600B46FB70FA
:101860000023002202217868FFF7B4FD0346FB81C4
:10187000FB78002B0BD0FB78012B04D1FB8943F0C4
:101880000103FB8103E0FB8943F00203FB81FA893A
:10189000012302217868FFF79DFD00BF1037BD4688
:1018A00080BD80B584B000AF78600B46FB7000232C
:1018B000002202217868FFF78DFD0346FB81FB784B
:1018C000012B04D1FB8923F00803FB8103E0FB8992
:1018D00043F00803FB81FA89012302217868FFF7AE
:1018E00079FD7B68FA781A7600BF1037BD4680BD57
:1018F00080B483B000AF78607B681B78002B12D176
:101900007B689B681B6800225A627B689B681B6827
:101910001A687B689B681B6842F001021A607B684A
:1019200001221A7029E07B6800221A707B689B688C
:101930001B681A6A41F211131340002B12D17B6805
:101940009B681B681A6A40F244431340002B09D17C
:101950007B689B681B681A687B689B681B6822F021
:1019600001021A607B689B681B685B6A07EE903A0D
:10197000F8EE677A7B68C3ED017A00BF0C37BD468D
:101980005DF8047B7047000080B400AF184B1B78F3
:101990001A46184B1B681344164A1360154B1A68F5
:1019A000154BA3FB02139B094FF47A7101FB03F360
:1019B000D31A002B06D1114B1B68114A13600F4B31
:1019C00000221A600B4B19680E4BA3FB0123DA08A7
:1019D00013469B0013445B00CA1A002A02D10A4B2B
:1019E00001221A7000BFBD465DF8047B704700BF3E
:1019F000E402002028160020D34D62105405002078
:101A000050050020CDCCCCCCEA04002080B582B0BB
:101A100000AF78607B681B680B4A934202D10B4889
:101A200000F09EFB7B681B68094A934208D1094875
:101A3000FFF75EFF084800F093FB0648FFF758FFEA
:101A400000BF0837BD4680BD002001408C0100204A
:101A50000022014098000020F801002080B588B0E5
:101A600000AF78604FF00003FB614FF00003BB61F3
:101A700064233B616423FB6000237B613EE07B6861
:101A80005B69184603F0FAFE00BF7B685B69322190
:101A9000184603F0C5FF0346002BF6D17B685B694F
:101AA000184604F069FA07EE900AF8EE677A97EDA7
:101AB000077A77EE277AC7ED077A7B685B69184665
:101AC00003F0DCFE00BF7B685B693221184603F03F
:101AD000A7FF0346002BF6D17B685B69184604F02C
:101AE0004BFA07EE900AF8EE677A97ED067A77EEF2
:101AF000277AC7ED067A7B6901337B617A693B6996
:101B00009A42BCDB3B6907EE903AF8EEE77AD7EDF4
:101B1000076A86EEA77AFB6807EE903AF8EEE77A56
:101B200067EE277AB6EE007A77EE877AFDEEE77AEF
:101B300017EE902AFB6892FBF3F307EE903AF8EE6B
:101B4000E77A7B68C3ED0B7A3B6907EE903AF8EED3
:101B5000E77AD7ED066A86EEA77AFB6807EE903A39
:101B6000F8EEE77A67EE277AB6EE007A77EE877AB4
:101B7000FDEEE77A17EE902AFB6892FBF3F307EE8F
:101B8000903AF8EEE77A7B68C3ED0C7A00BF203715
:101B9000BD4680BD80B592B000AF786000237B6405
:101BA0000AE07B6C9B0048333B44403B4FF0000213
:101BB0001A607B6C01337B647B6C0E2BF1DD00F0D3
:101BC0002BF98D4BD3ED007AF1EE677A7B68DB6DF4
:101BD0009FED8A7A67EE877AC3ED057A864BD3ED5F
:101BE000007A7B68DB6D9FED857A67EE877AC3EDBF
:101BF000067A814BD3ED007AF1EE677A7B681B6E33
:101C00009FED7E7A67EE877AC3ED057A7A4BD3ED46
:101C1000007A7B681B6E9FED797A67EE877AC3ED59
:101C2000067A786801F0C5F80121786800F019FC9F
:101C30007868FFF713FF7B689B681B68194670483C
:101C40000AF096F97B689B681846FFF739FA034655
:101C5000012B40F0AE807B689B681B7E012B24D15A
:101C60007B685B680021184606F044FF7B685B6870
:101C70000421184606F03EFF7B685B680821184681
:101C800006F038FF7B685B680021184607F0C4FD4A
:101C90007B685B680421184607F0BEFD7B685B68C3
:101CA0000821184607F0B8FD11E07B685B68002149
:101CB000184606F01FFF7B685B680421184606F093
:101CC00019FF7B685B680821184606F013FF7B68E4
:101CD0005B68184601F05AF803461A467B681A807A
:101CE0007B681B88194647480AF042F97B685B68A5
:101CF0001B6800225A637B685B681B6800229A633A
:101D00007B685B681B680022DA637B689B681B68E2
:101D1000184601F0A3FD0346002B15D07B689B6895
:101D20001A6807F108030F21184601F067FD7B6868
:101D3000DB68FA681A607B68DB683A695A607B681E
:101D4000DB687A699A601DE007F108031946786834
:101D500000F0A6FB0346012B14D17B689B681A6830
:101D600007F108030F21184601F0FAFC7B68DB68D5
:101D7000FA681A607B68DB683A695A607B68DB68DE
:101D80007A699A607B681B885A1E7B685B681B684F
:101D90001A647B685B680C21184606F0ABFE7B6812
:101DA0005B68184606F0DCFD7B685B69184604F04A
:101DB000B9FBFB681846FEF7C7FB02460B46124804
:101DC0000AF0D6F83B691846FEF7BEFB02460B4602
:101DD0000E480AF0CDF87B691846FEF7B5FB0246BF
:101DE0000B460B480AF0C4F80A480AF027F900BF6E
:101DF0004837BD4680BD00BFA40000203ACD133F48
:101E0000C0070108F80701080808010824080108AC
:101E1000300801084408010880B582B000AF484B83
:101E20001B68012B40F08880454B00221A6003227A
:101E30004449454803F090FF012003F0B7FC414BB3
:101E40001B8807EE903AB8EE677ADFED406AC7EE7E
:101E5000267A9FED3F7A67EE877A9FED3E7A27EEEE
:101E6000877ADFED3D6AC7EE267A3C4BC3ED007AF8
:101E7000344B5B8807EE903AB8EE677ADFED336A51
:101E8000C7EE267A9FED327A67EE877AC7ED017A40
:101E9000DFED336A97ED017AC6EE877A9FED317AEE
:101EA00077EEC77AB0EE670A01F0CEF9F0EE407A2D
:101EB0002D4BC3ED007A234B9B8807EE903AB8EE8A
:101EC000677ADFED226AC7EE267A9FED217A67EE08
:101ED000877AC7ED007ADFED226A97ED007AC6EEC9
:101EE000877A9FED207A77EEC77AB0EE670A01F025
:101EF000ABF9F0EE407A1D4BC3ED007A174B1B682F
:101F00001846FEF721FB02460B4619480AF030F846
:101F1000154B1B681846FEF717FB02460B46154883
:101F20000AF026F8104B1B681846FEF70DFB024618
:101F30000B4611480AF01CF800BF0837BD4680BDAB
:101F400064020020F4040020F412002000F07F4519
:101F500033335340CDCC2442CDCC0C40A4000020E0
:101F600000282A4600404E45EC040020F0040020E2
:101F700078080108840801089408010880B500AFBA
:101F8000654B1B78012B40F0C580644B1B8807EE26
:101F9000903AB8EE677ADFED626AC7EE267A9FED77
:101FA000617A67EE877A9FED607A67EE877ADFED78
:101FB0005F6A87EEA67A5E4BD3ED007A77EE277ADA
:101FC0005B4BC3ED007A5B4B1A685B4B1B689A4214
:101FD00014DB574BD3ED006A574B1B6807EE903A62
:101FE000B8EEE77AC6EE877A544BC3ED007A504BD1
:101FF0004FF000021A604F4B00221A60474B5B887B
:1020000007EE903AB8EE677ADFED456AC7EE267ABA
:102010009FED447A27EE877A494BD3ED007A77EE2D
:10202000277A474BC3ED007A424B1A68424B1B6834
:102030009A4225DB424BD3ED006A3F4B1B6807EE0B
:10204000903AB8EEE77AC6EE877A3E4BC3ED007A57
:102050003B4B4FF000021A603A4B93ED007ADFEDF4
:102060003A6AC6EE877A9FED397A77EEC77AB0EE94
:10207000670A01F0E9F8F0EE407A354BC3ED007ADB
:10208000264B9B8807EE903AB8EE677ADFED246A1C
:10209000C7EE267A9FED237A27EE877A2D4BD3ED74
:1020A000007A77EE277A2B4BC3ED007A214B1A6822
:1020B000214B1B689A4225DB264BD3ED006A1E4B51
:1020C0001B6807EE903AB8EEE77AC6EE877A224BA5
:1020D000C3ED007A1F4B4FF000021A601E4B93EDC8
:1020E000007ADFED196AC6EE877A9FED187A77EEEF
:1020F000C77AB0EE670A01F0A7F8F0EE407A174B06
:10210000C3ED007A0B4B1B6801330A4A1360024B84
:1021100000221A7000BF80BDEA040020F4040020F1
:1021200000F07F4533335340CDCC2442CDCC0C401E
:10213000580500205C05002068020020A400002053
:10214000600500206405002000282A4600404E4516
:10215000EC040020680500206C050020F00400203D
:1021600080B582B000AF78607B68DB69012B2ED12F
:102170007B689B681846FEF78DFF0346002B26D12F
:10218000786800F045FE786800F08EFE786800F010
:10219000DFFE114BD3ED007AB0EE670A786800F0ED
:1021A00047F9F0EE407A7B68C3ED117A7B684FF017
:1021B00000029A647B68D3ED117A7B6893ED127A02
:1021C000F0EE470AB0EE670A786800F075F800BFD5
:1021D0000837BD4680BD00BF8C0D002080B489B09B
:1021E00000AFF86087ED020AC7ED010A97ED027AA9
:1021F000D7ED017A77EE677AC7ED077AFB68D3ED02
:10220000007A97ED077A67EE277AC7ED067AFB68C2
:1022100093ED037AD7ED077A77EE277AFB68C3ED63
:10222000037AFB6893ED037AFB68D3ED067AB4EE8C
:10223000E77AF1EE10FA04DDFB689A69FB68DA6070
:102240000EE0FB6893ED037AFB68D3ED057AB4EEFC
:10225000E77AF1EE10FA03D5FB685A69FB68DA6099
:10226000FB6893ED017AFB68D3ED037A67EE277A7A
:10227000C7ED057AFB6893ED027AFB68D3ED047A2B
:10228000D7ED076A76EEE77A67EE277AC7ED047A2C
:10229000FB68FA691A6197ED067AD7ED057A37EE91
:1022A000277AD7ED047A77EE277AB0EE670A2437DB
:1022B000BD465DF8047B704780B586B000AFF8601E
:1022C00087ED020AC7ED010A4FF000037B614FF072
:1022D00000033B61FB68DB6D93ED037AFB68D3ED94
:1022E0000E7AD7ED026A76EEE77AFB68DB6D77EE61
:1022F000277AC3ED037AFB68DB6D93ED037AFB6805
:10230000DB6DD3ED067AB4EEE77AF1EE10FA03DD79
:10231000FB68DB6D9B6913E0FB68DB6D93ED037A73
:10232000FB68DB6DD3ED057AB4EEE77AF1EE10FAD7
:1023300003D5FB68DB6D5B6902E0FB68DB6DDB6886
:10234000FA68D26DD360FB68DB6D93ED007AD7ED50
:10235000027A27EE277AFB68DB6DD3ED036AFB6810
:10236000DB6DD3ED017A66EEA77A77EE277AC7EDBB
:10237000057AFB681B6E93ED037AFB68D3ED0D7A4B
:10238000D7ED016A76EEE77AFB681B6E77EE277A67
:10239000C3ED037AFB681B6E93ED037AFB681B6E3B
:1023A000D3ED067AB4EEE77AF1EE10FA03DDFB68BE
:1023B0001B6E9B6913E0FB681B6E93ED037AFB6851
:1023C0001B6ED3ED057AB4EEE77AF1EE10FA03D581
:1023D000FB681B6E5B6902E0FB681B6EDB68FA68DA
:1023E000126ED360FB681B6E93ED007AD7ED017A15
:1023F00027EE277AFB681B6ED3ED036AFB681B6E22
:10240000D3ED017A66EEA77A77EE277AC7ED047AE4
:10241000FB68D3ED147AB0EE671AD7ED040A97ED96
:10242000050AF86800F0A8FA00BF1837BD4680BD5D
:1024300080B582B000AF786087ED000A7B685A6E85
:102440007B68D3ED157AF0EE670A97ED000A104627
:10245000FFF7C4FEF0EE407AB0EE670A0837BD46DB
:1024600080BD80B582B000AF78600B46FB707B68A2
:102470009B68FA7811461846FFF730F900BF083715
:10248000BD4680BD80B483B000AF78607B68012218
:10249000DA6100BF0C37BD465DF8047B7047000071
:1024A00080B58CB000AF78603960974B7B629748FD
:1024B00009F0C4FD9FED961AF7EE000A9FED940A0D
:1024C000786800F059FA4FF4FA7003F06FF97B68FE
:1024D0001B69184600F0C2FD87ED080A4FF00003A3
:1024E000BB621FE0D7ED0A7A9FED8A7A67EE876AB2
:1024F00097ED097AC6EE877AC7ED027A97ED021A50
:10250000F7EE000A9FED820A786800F035FA0120A4
:1025100003F04CF9D7ED0A7AB7EE007A77EE877AB6
:10252000C7ED0A7A97ED0A7AD7ED097AB4EEE77A21
:10253000F1EE10FAD6D97B681B69184600F08EFDC3
:1025400087ED070A7B6ABB621FE0D7ED0A7A9FED31
:10255000717A67EE876A97ED097AC6EE877AC7EDDA
:10256000027A97ED021AF7EE000A9FED690A786881
:1025700000F002FA012003F019F9D7ED0A7AB7EE5C
:10258000007A77EEC77AC7ED0A7AD7ED0A7AF5EEC8
:10259000C07AF1EE10FAD8DA7B681B69184600F0B1
:1025A0005DFD87ED060A97ED087AD7ED067A77EE9E
:1025B000677AF0EEE77A17EE900AFDF7C5FF4EA3B3
:1025C000D3E90023FEF7A8FA0346002B04D05248B3
:1025D00009F034FD00238BE097ED077AD7ED067AFA
:1025E00077EE677AF0EEE77AC7ED057A7869FDF75E
:1025F000ABFF41A3D3E90023FEF770FA0346002B9B
:1026000004D0464809F01AFD002371E097ED077ADF
:10261000D7ED067AB4EEE77AF1EE10FA05D5404828
:1026200009F00CFD3F4BFB6205E03F4809F006FD59
:102630004FF07E53FB62DFED376A97ED057AC6EE09
:10264000877AB6EE007A77EE877AFDEEE77A17EEB4
:10265000903A3B61354809F08BFC3B6907EE903AB4
:10266000B8EEE77AD7ED057A67EE277A9FED297AFB
:1026700077EEC77AF0EEE77A17EE900AFDF764FF7F
:102680001FA3D3E90023FEF747FA0346002B04D02B
:10269000274809F0D3FC00232AE0264809F0CEFCA5
:1026A0003B6907EE903AB8EEE77AD7ED0B7A27EE62
:1026B000277AD7ED087A67EE277AB0EE670A00F03E
:1026C00063F887ED030A3B680F4A1A603B680433DE
:1026D000FA681A603B680833FA6A1A603B680C3380
:1026E0003A6907EE902AF8EEE77AC3ED007A012303
:1026F00018463037BD4680BD9A9999999999A93F56
:10270000333333333333D33F00007A44A408010812
:1027100000000000DB0FC940CC08010800090108D7
:102720003C090108000080BF540901086C09010838
:10273000780901089009010880B582B000AF78607F
:102740007B68DB6893ED017A7B68DB68D3ED027A06
:1027500027EE277A7B681B69D3ED0B7A27EE277A61
:102760007B68DB68D3ED007A77EE677AB0EE670AB4
:1027700000F00AF8F0EE407AB0EE670A0837BD467E
:1027800080BD00000000000080B584B000AF87ED80
:10279000010A7868FDF7D8FE02460B469FED121B32
:1027A00043EC102B0DF05EFD53EC102B1046194638
:1027B000FEF71AFA0346FB60D7ED037AF5EEC07A0E
:1027C000F1EE10FA02DBD7ED037A05E0D7ED037ADC
:1027D0009FED077A77EE877AB0EE670A1037BD462D
:1027E00080BD00BFAFF3008000000060FB211940F6
:1027F000DB0FC94080B485B000AF87ED010A7B686C
:10280000BB6007F108031B68FB60FB685A100A4BAA
:102810009B1AFB6007F10C031B68BB6097ED027A03
:10282000D7ED017A67EE277AB0EE670A1437BD4616
:102830005DF8047B704700BF865A375F80B485B06F
:1028400000AF87ED010AC7ED000AD7ED016A97EDE9
:10285000007AC6EE877AC7ED037AD7ED007AF5EEF7
:10286000407AF1EE10FA16D1D7ED017AF5EEC07A82
:10287000F1EE10FA02DDDFED3B7A6CE0D7ED017A84
:10288000F5EEC07AF1EE10FA02D5DFED377A62E0AC
:10289000DFED367A5FE0D7ED037AF0EEE77AB7EE58
:1028A000007AF4EEC77AF1EE10FA32D5D7ED037A5A
:1028B0009FED2F7A27EE877AD7ED037A67EE277A96
:1028C000B7EE007A37EE877AD7ED036AC6EE877ADD
:1028D000C7ED027AD7ED007AF5EEC07AF1EE10FA84
:1028E00014D5D7ED017AF5EEC07AF1EE10FA06D5DF
:1028F000D7ED027A9FED1F7A77EEC77A2BE0D7EDFE
:10290000027A9FED1C7A77EE877A24E0D7ED027A7F
:1029100021E0D7ED037A67EEA77A9FED157A37EEBF
:10292000877AD7ED036AC6EE877A9FED0E7A77EE47
:10293000677AC7ED027AD7ED017AF5EEC07AF1EE4B
:1029400010FA06D5D7ED027A9FED0A7A77EEC77AAC
:1029500001E0D7ED027AB0EE670A1437BD465DF8A4
:10296000047B7047DB0FC93FDB0FC9BF00000000CD
:10297000295C8F3EDB0F4940B0B58EB000AF786167
:1029800087ED040AC7ED030A87ED021AD7ED037A33
:1029900027EEA77AD7ED047A67EEA77A77EE277A43
:1029A000B0EE670AFFF726FFF0EE406ACC4B93EDDE
:1029B000007AC6EE877AC7ED0A7AD7ED030A97ED5B
:1029C000040AFFF73BFFB0EE407AD7ED027A77EECC
:1029D000277AB0EE670AFFF7D7FE87ED020AD7ED38
:1029E0000A7A9FEDC07AF4EEC77AF1EE10FA01DDB3
:1029F000BD4B0BE0D7ED0A7A9FEDBC7AF4EEC77AB7
:102A0000F1EE10FA01D5BA4B00E0BB6ABB6297ED5C
:102A1000027ADFEDB86AC7EE267AB7EE007A77EE73
:102A2000877AFCEEE77AC7ED017A3B7987F82730A1
:102A300097F8273007EE903AF8EEE77A9FEDAE7AF6
:102A400027EE877AD7ED027A77EE677AB0EE670ADB
:102A500008F0D8FAF0EE407A9FEDA87A67EE877A10
:102A600097ED0A7A67EE277AC7ED087AB868FDF71E
:102A70006BFD04460D4697F827301846FDF752FDCA
:102A80004FF000029E4BFDF7FFFB02460B4610463F
:102A9000194691A3D3E90023FDF7AEFD02460B468C
:102AA00020462946FDF7F0FB02460B461046194624
:102AB000FEF79AF8034600EE103A08F0A3FAF0EE9B
:102AC000407A9FED8E7A67EE877A97ED0A7A67EE05
:102AD000277AC7ED077AB7EE007AD7ED087A37EE96
:102AE000677AD7ED077A77EE677AC7ED067A97F8B7
:102AF0002730013B052B00F2058101A252F823F09B
:102B0000192B0008632B0008AD2B0008F72B0008D9
:102B1000412C00088B2C000897ED087AD7ED077A36
:102B200037EE277AD7ED066AB0EE006AC6EE867AEF
:102B300077EE277AC7ED0D7A97ED067AF0EE006A08
:102B4000C7EE267A97ED077A77EE277AC7ED0C7AEB
:102B500097ED067AF0EE006AC7EE267AC7ED0B7A9B
:102B6000D9E097ED067AF0EE006AC7EE267A97ED87
:102B7000087A77EE277AC7ED0D7A97ED087AD7EDC8
:102B8000077A37EE277AD7ED066AB0EE006AC6EE0E
:102B9000867A77EE277AC7ED0C7A97ED067AF0EE13
:102BA000006AC7EE267AC7ED0B7AB4E097ED067A95
:102BB000F0EE006AC7EE267AC7ED0D7A97ED087A37
:102BC000D7ED077A37EE277AD7ED066AB0EE006ABE
:102BD000C6EE867A77EE277AC7ED0C7A97ED067AFD
:102BE000F0EE006AC7EE267A97ED077A77EE277A3D
:102BF000C7ED0B7A8FE097ED067AF0EE006AC7EE2C
:102C0000267AC7ED0D7A97ED067AF0EE006AC7EEE8
:102C1000267A97ED087A77EE277AC7ED0C7A97ED4A
:102C2000087AD7ED077A37EE277AD7ED066AB0EE45
:102C3000006AC6EE867A77EE277AC7ED0B7A6AE0ED
:102C400097ED067AF0EE006AC7EE267A97ED077ADE
:102C500077EE277AC7ED0D7A97ED067AF0EE006AE7
:102C6000C7EE267AC7ED0C7A97ED087AD7ED077A8A
:102C700037EE277AD7ED066AB0EE006AC6EE867A9E
:102C800077EE277AC7ED0B7A45E097ED087AD7ED16
:102C9000077A37EE277AD7ED066AB0EE006AC6EEFD
:102CA000867A77EE277AC7ED0D7A97ED067AF0EE01
:102CB000006AC7EE267AC7ED0C7A97ED067AF0EE39
:102CC000006AC7EE267A97ED087A77EE277AC7ED85
:102CD0000B7A20E0AFF300800000004052C1F03FCB
:102CE000A400002046B6133F46B6133F46B613BFB6
:102CF00046B613BFE4CB1641920A863FD7B3DD3FF9
:102D00000000F03F4FF000037B634FF000033B6394
:102D10004FF00003FB627B691B8807EE903AB8EE28
:102D2000E77AD7ED0D7A67EE277A7B695B681B68D7
:102D3000FCEEE77A17EE902A5A637B691B8807EE50
:102D4000903AB8EEE77AD7ED0C7A67EE277A7B698E
:102D50005B681B68FCEEE77A17EE902A9A637B6942
:102D60001B8807EE903AB8EEE77AD7ED0B7A67EE5C
:102D7000277A7B695B681B68FCEEE77A17EE902A7E
:102D8000DA6300BF3837BD46B0BD00BF80B483B042
:102D900000AF78607B68002B04D07B681B68DB6A1F
:102DA0009BB200E0002318460C37BD465DF8047B5B
:102DB000704780B586B000AF78607B685B681B6841
:102DC0009B6AFB827B685B681B68DB6A3B6105F082
:102DD00043FDF860FB6807EE903AF8EE676AFB8AFD
:102DE00001331A463B69013302FB03F307EE903AC5
:102DF000F8EE677A86EEA77AF0EE006AC7EE267ADA
:102E00007B68C3ED067A00BF1837BD4680BD000061
:102E100080B485B000AF78607B689B6893ED057ADD
:102E2000DFED206AC6EE877AC7ED037A7B685B69BF
:102E30001B68DB6B07EE903AB8EE677A7B68D3EDE0
:102E40000B7A37EE677AD7ED037A67EE277A7B68DD
:102E5000C3ED0A7A7B685B691B681B6C07EE903ACE
:102E6000B8EE677A7B68D3ED0C7A37EE677AD7EDE8
:102E7000037A67EE277A7B68C3ED097A7B68D3ED26
:102E80000A7AB1EE677A7B68D3ED097A77EE677AD2
:102E90007B68C3ED087A00BF1437BD465DF8047B3C
:102EA000704700BF510AA53D80B586B000AF78607D
:102EB0007B681B6A7B617B6893ED087A7B68D3ED46
:102EC000097A77EEA77A77EE277A9FED207A67EE78
:102ED000877AC7ED047A7B68D3ED147AB0EE670A7F
:102EE00008F0D6F887ED030A7B68D3ED147AB0EECC
:102EF000670A08F087F887ED020A97ED057AD7EDA3
:102F0000037A27EE277AD7ED046AD7ED027A66EEC8
:102F1000A77A77EE277A7B68C3ED0D7AD7ED057A2D
:102F2000B1EE677AD7ED027A27EE277AD7ED046AF9
:102F3000D7ED037A66EEA77A77EE277A7B68C3ED42
:102F40000E7A00BF1837BD4680BD00BF3ACD133F93
:102F500080B584B000AF78607B681B69184600F0CC
:102F60007DF87868FFF7E8FBF0EE407A7B68C3ED08
:102F7000147A7B68DB6893ED017A7B681B69D3ED7B
:102F80000C7A27EE277A7B68D3ED066AB2EE046AE4
:102F9000C6EE867A27EE277ADFED186AC7EE267A24
:102FA000C7ED037A7B68D3ED167AF5EE407AF1EE41
:102FB00010FA18D0124B93ED007AD7ED037A27EE72
:102FC000277A0F4BD3ED007AF7EE006A76EEE76AC8
:102FD0007B68D3ED157A66EEA77A77EE277A7B6861
:102FE000C3ED157A02E07B68FA685A657B685A6D12
:102FF0007B689A6500BF1037BD4680BDDB0FC940B6
:10300000580A010880B582B000AF78607B684FF045
:103010008D429A61786800F09DF8F0EE407A7B6806
:10302000C3ED097A7B685A6A7B681A627B684FF045
:103030000002DA617B6893ED077A7B68D3ED087A4A
:1030400077EE277A7B68C3ED0B7A7B68DA6A7B6858
:103050009A6200BF0837BD4680BD000080B584B0CD
:1030600000AF7860786800F075F8F0EE407A7B6821
:10307000C3ED087A7B6893ED087A7B68D3ED097A13
:1030800077EE677AC7ED037AD7ED037AF5EEC07A6B
:10309000F1EE10FA0CDDD7ED037A9FED2A7AF4EE0B
:1030A000C77AF1EE10FACCBF01230023DBB20BE0AC
:1030B000D7ED037A9FED247AF4EEC77AF1EE10FA99
:1030C0004CBF01230023DBB2002B13D07B68D3ED70
:1030D000077A97ED037AB5EEC07AF1EE10FA02DDC9
:1030E0009FED1A7A01E09FED1A7A77EE277A7B68D6
:1030F000C3ED077A7B681A6A7B685A627B6893ED36
:10310000077A7B68D3ED087A77EE277A7B68C3ED80
:103110000B7A7B6893ED0B7A7B68D3ED0A7A77EEB6
:10312000677A7B68C3ED0C7A7B68DA6A7B689A629F
:103130007B68DB6A07EE903AB0EE670A1037BD464F
:1031400080BD00BF7CD9A0407CD9A0C0DB0FC9C026
:10315000DB0FC94080B586B000AF78600023FB82EA
:103160004FF00003BB600E233B617B6818687B68EF
:103170009B880022194604F0D9FE7B6898687B681A
:103180009B890022194604F0D1FE7B6898687B6811
:103190009B890122194604F0C9FE0023FB6028E048
:1031A0007B6898687B689B890022194604F0BEFE04
:1031B0007B681A697B689B8A1946104604F09EFE5C
:1031C00003461A463B6902FA03F31AB2B7F91630FE
:1031D00013431BB2FB823B69013B3B617B689868F0
:1031E0007B689B890122194604F0A0FEFB6801332D
:1031F000FB60FB680D2BD3DD7B6818687B689B88C0
:103200000122194604F092FEFB8A07EE903AF8EE8E
:10321000E77A9FED0B7A67EE877AF0EE006A87EE29
:10322000A67ADFED086AC7EE267AC7ED027ABB6898
:1032300007EE903AB0EE670A1837BD4680BD00BF72
:10324000DB0FC9400000804680B487B000AF87ED37
:10325000010A00237B6163233B6131E03A697B69AA
:10326000D31ADA0F13445B101A467B691344BB6010
:103270003A4ABB689B001344D3ED007A97ED017A7C
:10328000B4EE677AF1EE10FA06D1354ABB689B00BE
:103290001344D3ED007A59E0304ABB689B001344D5
:1032A000D3ED007A97ED017AB4EEE77AF1EE10FAF9
:1032B00003DDBB6801337B6102E0BB68013B3B611E
:1032C0007A693B699A42C9DD7B69002B02D1DFED47
:1032D000257A3BE03B69632B02D1DFED237A35E0B1
:1032E0001E4A3B699B001344D3ED007A97ED017AA7
:1032F00077EE676A194A7B699B00134493ED007A65
:10330000164A3B699B001344D3ED007A37EE677A87
:10331000C6EE877AC7ED037A114A3B699B001344D6
:1033200093ED007A0E4A7B699B001344D3ED006A4B
:103330000B4A3B699B001344D3ED007A76EEE76AB3
:10334000D7ED037A66EEA77A77EE277AB0EE670AB2
:103350001C37BD465DF8047B704700BF5C0A01085E
:10336000EC0B01080000C742295CC5C180B400AF66
:10337000BFF34F8F00BF064BDB6803F4E0620449E4
:10338000044B1343CB60BFF34F8F00BF00BFFDE77B
:1033900000ED00E00400FA0580B500AF4FF4806254
:1033A0000449054806F0D8FC044808F047FE00BF71
:1033B00080BD00BF84090020841500209809010801
:1033C00080B582B000AF78607B689B6B1B684FF460
:1033D00080625A604FF480620349786806F0BCFC52
:1033E00000BF0837BD4680BD8409002080B582B08B
:1033F00000AF78600B467B807B680E4A934215D104
:103400007B689B6B1B685B68C3F580631A460A4B3D
:10341000C3F80024084BD3F800341A46074906487D
:1034200008F0F2FF044B012283F8042400BF0837A0
:10343000BD4680BD84150020700500208409002051
:1034400080B5ADF5806D00AF7F4B93F80434002B51
:1034500000F0F5807C4BD3F800341A463B467A499D
:10346000184608F0D1FF3B46784A7949184608F0DB
:103470000DFE0346002B04DD744B1B68754A136078
:10348000D6E03B46714A7449184608F0FFFD0346F2
:10349000002B04DD6D4B1B68704A1360C8E03B468F
:1034A0006A4A6F49184608F0F1FD0346002B04DD17
:1034B000664B1B686B4A1360BAE03B46634A6A4935
:1034C000184608F0E3FD0346002B04DD5F4B1B6844
:1034D000664A1360ACE03B465C4A6549184608F012
:1034E000D5FD0346002B04DD584B1B68614A136071
:1034F0009EE03B46554A6049184608F0C7FD034622
:10350000002B04DD514B1B685C4A136090E03B4686
:103510004E4A5B49184608F0B9FD0346002B04DD0E
:103520004A4B1B68574A136082E03B46564A57494C
:10353000184608F0ABFD0346002B05DD524B1B6817
:10354000012B75D1FFF712FF3B464F4A50491846F1
:1035500008F09CFD0346002B11DD4B4B1B68012B33
:1035600066D14C4B1B68184600F0E8F84A4B1B68C4
:10357000184600F0E3F8494808F060FD58E03B4683
:10358000414A4749184608F081FD0346002B0ADDF1
:103590003D4B1B68012B4BD13E48FDF791FD3E484A
:1035A000FDF78EFD44E03B46374A3E49184608F099
:1035B0006DFD0346002B0BDD334B1B68012B03D144
:1035C000394B01221A6033E0374B00221A602FE09A
:1035D0003B462D4A3549184608F058FD0346002B56
:1035E00010DD294B1B68012B22D12A48FEF79EF8DB
:1035F0002948FEF79BF82748FDF762FD2648FDF7AE
:103600005FFD15E03B46204A2949184608F03EFD7B
:103610000346002B0CDD1C4B1B68012B04D1012140
:103620001C48FEF75BF803E000211A48FEF756F845
:10363000054B002283F804241E48FFF7C1FE00BF9B
:1036400007F58067BD4680BD70050020980D0020FD
:10365000B009010878090020B80901087C09002098
:10366000C009010880090020C8090108840D002054
:10367000D0090108880D0020D80901088C0D002010
:10368000E0090108900D0020940D0020E8090108D0
:10369000F4090108300000207C000020000A010825
:1036A000140A0108200A0108D4020020300A010887
:1036B000400A01088415002080B582B000AF786010
:1036C0000B46FB70FB789BB29B009AB2642379682F
:1036D000064806F0AFFA642304220549034806F0C1
:1036E000A9FA00BF0837BD4680BD00BF8415002081
:1036F000D802002080B582B000AF7860391D4FF04D
:10370000FF330122034806F095FA7B681846083714
:10371000BD4680BD8415002080B483B000AF7860C2
:103720007B6803F00103002B01D10B2300E00A2387
:1037300018460C37BD465DF8047B704780B584B0F1
:1037400000AF78604FF00003FB6007F10C037A686C
:103750000121184600F004F800BF1037BD4680BDB7
:10376000B0B590B000AFF860B9607A6003F0A6FF22
:103770000023BB610223BB627868FFF7CDFF38638B
:103780003B6B3B6201237B6207F1140207F11803D4
:103790001146184604F0F4F83B6B0B2B02D1154B85
:1037A000FB6301E0144BFB63FB6BBB6300237B6398
:1037B00015E07B6B9B00FA6813441B68FB62B96BD6
:1037C000FB6A00221C46154622462B46022003F0C7
:1037D00021FFBB6B0433BB637B6B01337B637A6B71
:1037E000BB689A42E5DB03F08BFF00BF4037BD4664
:1037F000B0BD00BF00000E0800000C0880B588B006
:1038000000AFF860B9607A607868FFF785FF3861CB
:103810003B690B2B02D10F4BFB6101E00E4BFB61AF
:10382000FB69BB6100237B610BE0BB691A1DBA61B8
:103830007A699200F9680A441B6813607B69013356
:103840007B617A69BB689A42EFDB00BF00BF20371B
:10385000BD4680BD00000E0800000C0880B586B093
:1038600000AF78607868FFF757FF38613B690B2B32
:1038700002D1114B7B6101E0104B7B617B69FB60E6
:10388000FB68D3ED007A9FED0E7AF4EEC77AF1EE85
:1038900010FA0BDDFB68D3ED007A9FED0A7AF4EEA7
:1038A000C77AF1EE10FA01D5012300E00023184693
:1038B0001837BD4680BD00BF00000E0800000C0890
:1038C00000C0794400407A4408B480B59FB000AF8E
:1038D0000346FB800B46BB801346FB7000233B6115
:1038E00007F1140360220021184608F00FFD07F1CC
:1038F0008803FB6007F11000FB68D7F8842064217F
:1039000008F060FC002387F8773015E097F87730EF
:1039100078333B4413F8683CFA78B7F90410B7F9E8
:10392000060000F021F8FB8808339BB2FB8097F873
:103930007730013387F8773097F8773078333B4426
:1039400013F8683C002B07D0B7F906304F2B03DC87
:10395000B7F904307F2BD9DD00BF7C37BD46BDE809
:10396000804001B07047000090B484B000AF0446BE
:10397000084611461A462346FB800346BB800B4689
:10398000FB701346BB70BB781F2B40F27281BB7873
:103990007E2B00F26E81BB78203BBB70FB78102B36
:1039A00040F0C3800023FB73BAE00023BB73B0E098
:1039B00000237B73A6E0B7F90620BB7B13444F2B93
:1039C00000F39D80B7F90620BB7B1344002BC0F2A7
:1039D0009680B7F904207B7B1A44FB7BDB00134401
:1039E0007F2B00F38C80B7F904207B7B1A44FB7B90
:1039F000DB001344002BC0F28280BA78B97BFB7BDA
:103A0000DB000B449D4912010A4413441B78BB722E
:103A1000BA7A7B7B012101FA03F31340002B36DDD8
:103A2000B7F904207B7B1A44FB7BDB001344002B9B
:103A300000DA0733DB101A46B7F90610BB7B1944CE
:103A40008F4813469B0013441B0103440B441B780F
:103A500059B2B7F904007B7B1844FB7BDB000344BD
:103A600003F00703012000FA03F35BB20B4358B2E3
:103A7000B7F90610BB7B1944C4B2814813469B00BA
:103A800013441B0103440B4422461A7037E0B7F974
:103A900004207B7B1A44FB7BDB001344002B00DA01
:103AA0000733DB101A46B7F90610BB7B194474487C
:103AB00013469B0013441B0103440B441B7859B26B
:103AC000B7F904007B7B1844FB7BDB00034403F065
:103AD0000703012000FA03F35BB2DB435BB20B4048
:103AE00058B2B7F90610BB7B1944C4B264481346F8
:103AF0009B0013441B0103440B4422461A707B7B3A
:103B000001337B737B7B072B7FF655AFBB7B013388
:103B1000BB73BB7B072B7FF64BAFFB7B0133FB7388
:103B2000FB7B012B7FF641AFA3E0FB78082B40F035
:103B3000A08000233B7398E00023FB728EE0B7F96E
:103B400006203B7B13444F2B00F38580B7F90620FA
:103B50003B7B1344002B7EDBB7F90420FB7A134434
:103B60007F2B78DCB7F90420FB7A1344002B72DB3F
:103B7000BA783B7B4349D2000A4413441B78BB729A
:103B8000BA7AFB7A012101FA03F31340002B30DDEE
:103B9000B7F90420FB7A1344002B00DA0733DB105B
:103BA0001A46B7F906103B7B1944354813469B006B
:103BB00013441B0103440B441B7859B2B7F90400AA
:103BC000FB7A034403F00703012000FA03F35BB21E
:103BD0000B4358B2B7F906103B7B1944C4B22848CE
:103BE00013469B0013441B0103440B4422461A70E6
:103BF00031E0B7F90420FB7A1344002B00DA0733D5
:103C0000DB101A46B7F906103B7B19441C481346D3
:103C10009B0013441B0103440B441B7859B2B7F9B2
:103C20000400FB7A034403F00703012000FA03F3C6
:103C30005BB2DB435BB20B4058B2B7F906103B7B7B
:103C40001944C4B20E4813469B0013441B0103449D
:103C50000B4422461A70FB7A0133FB72FB7A072B66
:103C60007FF66DAF3B7B01333B733B7B072B7FF6CE
:103C700063AF00BF1037BD4690BC70477C0D010894
:103C80009C0D00206C13010880B582B000AF344B4E
:103C90001B78002B07D101F07DFD0346314A1360EC
:103CA0002F4B01221A700023FB711DE0FB7919468E
:103CB000002000F089F80023BB710FE0FA79B97990
:103CC000294813469B0013441B0103440B441B78F3
:103CD000184600F02DF9BB790133BB71BB794F2B2E
:103CE000ECD9FB790133FB71FB790F2BDED901F0A5
:103CF00051FD38601B4B1B683A689A4213D3194B2D
:103D00001B683A68D31AB3F57A7F1FD3174B1B6829
:103D1000174A1360154B00221A6001F03BFD034661
:103D2000104A136012E00F4B1B683A68D31AB3F5C0
:103D30007A7F0BD30D4B1B680D4A13600B4B00228F
:103D40001A6001F027FD0346064A1360074B1B6803
:103D50000133064A136000BF0837BD4680BD00BF6F
:103D6000A0120020A41200209C0D0020A812002008
:103D70009C12002080B483B000AF0023FB7116E0DA
:103D80000023BB710DE0FA79B9790E4813469B0008
:103D900013441B0103440B4400221A70BB79013306
:103DA000BB71BB794F2BEED9FB790133FB71FB79EA
:103DB0000F2BE5D900BF00BF0C37BD465DF8047B73
:103DC000704700BF9C0D002080B582B000AF034655
:103DD0000A46FB711346BB71BB79503BDBB21846F8
:103DE00000F084F8FB791B09DBB243F01003DBB26F
:103DF000184600F07BF8FB7903F00F03DBB218469E
:103E000000F074F800BF0837BD4680BD80B500AF34
:103E100000224FF48051344804F088F8642001F007
:103E2000C5FC01224FF480512F4804F07FF8AE20EA
:103E300000F05CF8002000F059F8102000F056F86F
:103E4000B02000F053F8812000F050F8BF2000F0BF
:103E50004DF8A12000F04AF8A62000F047F8A8206D
:103E600000F044F84F2000F041F8AD2000F03EF89B
:103E70008A2000F03BF8322000F038F8C82000F02B
:103E800035F8D32000F032F8182000F02FF8D520B4
:103E900000F02CF8802000F029F8D92000F026F856
:103EA000222000F023F8DA2000F020F8122000F0A1
:103EB0001DF8DC2000F01AF8002000F017F8DB20D5
:103EC00000F014F8402000F011F88D2000F00EF8FA
:103ED000142000F00BF8FFF74DFFFFF7D5FEAF20E1
:103EE00000F004F800BF80BD0000024080B582B041
:103EF00000AF0346FB7100224FF400610A4804F052
:103F000015F800220421094804F010F8FB7918463E
:103F100000F030F801224FF40061034804F006F885
:103F200000BF0837BD4680BD0000024000040240CB
:103F300080B582B000AF0346FB7100224FF40061F0
:103F40000A4803F0F3FF01220421094803F0EEFFC1
:103F5000FB79184600F00EF801224FF40061034887
:103F600003F0E4FF00BF0837BD4680BD00000240FB
:103F70000004024080B584B000AF0346FB7100230B
:103F8000FB7322E000224FF48061144803F0CEFF5F
:103F900097F90730002B06DA01224FF400610F4831
:103FA00003F0C4FF05E000224FF400610B4803F06A
:103FB000BDFFFB795B00FB7101224FF48061074874
:103FC00003F0B4FFFB7B0133FB73FB7B072BD9D9D9
:103FD00000BF00BF1037BD4680BD00BF00040240D7
:103FE00080B58CB000AF07F1200300221A605A6040
:103FF0009A60DA603B4620220021184608F086F9D4
:104000003E4B3F4A1A603D4B4FF480325A603B4B67
:1040100000229A60394B01221A61384B00221A762D
:10402000364B002283F82020344B0022DA62334BD7
:10403000344A9A62314B0022DA60304B0222DA6154
:104040002E4B002283F830202C4B00225A612B4843
:1040500001F0D0FB0346002B01D000F047FD0A23FE
:104060003B6201237B620023BB6207F120031946F8
:10407000224801F0B7FF0346002B01D000F036FDC7
:104080000B233B6202237B6207F1200319461B4886
:1040900001F0A8FF0346002B01D000F027FD0A2302
:1040A0003B6001237B6002233B610123BB604FF433
:1040B0008013FB610023BB6100237B7500233B75EC
:1040C0000023FB603B4619460C4802F0FDFA03460C
:1040D000002B01D000F00AFD0B233B6002237B6024
:1040E0003B461946054802F0EFFA0346002B01D083
:1040F00000F0FCFC00BF3037BD4680BDAC12002094
:10410000002001400100000F80B584B000AF3B46A5
:1041100000221A605A609A60DA602F4B2F4A1A60A8
:104120002D4B4FF480325A602B4B00229A602A4B61
:1041300001221A61284B01221A76274B002283F8AC
:104140002020254B0022DA62234B254A9A62224B1B
:104150000022DA60204B0322DA611F4B012283F830
:1041600030201D4B00225A611B4801F043FB0346DF
:10417000002B01D000F0BAFC06233B6001237B60DA
:104180000723BB603B461946134801F02BFF03464B
:10419000002B01D000F0AAFC04233B6002237B60CB
:1041A0003B4619460C4801F01DFF0346002B01D089
:1041B00000F09CFC0F233B6003237B603B461946C9
:1041C000054801F00FFF0346002B01D000F08EFCE4
:1041D00000BF1037BD4680BDF41200200021014011
:1041E0000100000F80B58CB000AF07F12003002262
:1041F0001A605A609A60DA603B4620220021184615
:1042000008F084F83F4B404A1A603E4B4FF480322E
:104210005A603C4B00229A603A4B01221A61394B9A
:1042200000221A76374B002283F82020354B0022DB
:10423000DA62344B354A9A62324B0022DA60314BF3
:104240000222DA612F4B002283F830202D4B00220E
:104250005A612C4801F0CEFA0346002B01D000F041
:1042600045FC0C233B6201237B620323BB6207F105
:1042700020031946234801F0B5FE0346002B01D068
:1042800000F034FC0D233B6202237B6207F1200324
:1042900019461C4801F0A6FE0346002B01D000F091
:1042A00025FC0C233B6001237B6002233B6101233F
:1042B000BB604FF48013FB614FF46023BB610023AC
:1042C0007B7500233B750023FB603B4619460D4878
:1042D00002F0FAF90346002B01D000F007FC0D2391
:1042E0003B6002237B603B461946064802F0ECF92E
:1042F0000346002B01D000F0F9FB00BF3037BD466C
:1043000080BD00BF3C130020002201400100000FCF
:1043100080B58EB000AF786007F1240300221A60E8
:104320005A609A60DA601A617B681B68764A934229
:1043300030D100233B62754B5B6C744A43F480734D
:104340005364724B5B6C03F480733B623B6A0023E3
:10435000FB616E4B1B6B6D4A43F0040313636B4BA5
:104360001B6B03F00403FB61FB6903237B620323E4
:10437000BB620023FB6207F124031946644803F083
:1043800021FC00220021122002F00BFD122002F07D
:1043900024FDB5E07B681B685E4A93427BD1002315
:1043A000BB615A4B5B6C594A43F400735364574BDF
:1043B0005B6C03F40073BB61BB6900237B61534BEF
:1043C0001B6B524A43F001031363504B1B6B03F00A
:1043D00001037B617B6900233B614C4B1B6B4B4AA8
:1043E00043F004031363494B1B6B03F004033B616D
:1043F0003B6950237B620323BB620023FB6207F10E
:1044000024031946444803F0DDFB20237B62032389
:10441000BB620023FB6207F1240319463C4803F00A
:10442000D1FB3E4B3E4A1A603C4B4FF000725A6043
:104430003A4B00229A60394B0022DA60374B4FF436
:1044400080621A61354B4FF400625A61334B4FF46E
:1044500000529A61314B4FF48072DA612F4B002287
:104460001A622E4B00225A622C4802F0D1FC0346FD
:10447000002B01D000F03AFB7B68284A9A63274A58
:104480007B68936300220021122002F08AFC122034
:1044900002F0A3FC34E07B681B68224A93422FD1D0
:1044A0000023FB60194B5B6C184A43F48063536430
:1044B000164B5B6C03F48063FB60FB680023BB60FE
:1044C000124B1B6B114A43F0040313630F4B1B6B1E
:1044D00003F00403BB60BB680C237B620323BB6255
:1044E0000023FB6207F124031946094803F06AFB25
:1044F00000220021122002F054FC122002F06DFC78
:1045000000BF3837BD4680BD002001400038024062
:1045100000080240002101400000024084130020F6
:10452000406402400022014080B500AF164B174A9C
:104530001A60154B10225A60134B00229A60124BDE
:104540000022DA60104B00221A610F4B00225A61E0
:104550000D4B00221A760C4B00225A760A4B002291
:104560009A76094B0022DA76074B00221A77064B1F
:1045700000225A77044802F03DFA0346002B01D08E
:1045800000F0B4FA00BF80BDE413002000640040D6
:1045900080B58AB000AF786007F1140300221A607A
:1045A0005A609A60DA601A617B681B68194A934204
:1045B0002CD100233B61184B1B6C174A43F000734E
:1045C0001364154B1B6C03F000733B613B690023C4
:1045D000FB60114B1B6B104A43F0020313630E4B3D
:1045E0001B6B03F00203FB60FB684FF440737B61BD
:1045F0000223BB610023FB6103233B6209237B622F
:1046000007F114031946054803F0DCFA00BF283708
:10461000BD4680BD006400400038024000040240F6
:1046200080B582B000AF00237B60174B1B6B164A2E
:1046300043F400131363144B1B6B03F400137B60F0
:104640007B6800233B60104B1B6B0F4A43F48003D5
:1046500013630D4B1B6B03F480033B603B6800222C
:1046600000210D2002F09DFB0D2002F0B6FB002280
:1046700000213A2002F095FB3A2002F0AEFB00BF89
:104680000837BD4680BD00BF0038024080B58AB003
:1046900000AF07F1140300221A605A609A60DA60D2
:1046A0001A6100233B61724B1B6B714A43F0040398
:1046B00013636F4B1B6B03F004033B613B690023E7
:1046C000FB606B4B1B6B6A4A43F080031363684BC0
:1046D0001B6B03F08003FB60FB680023BB60644B33
:1046E0001B6B634A43F001031363614B1B6B03F0C5
:1046F0000103BB60BB6800237B605D4B1B6B5C4AA6
:1047000043F0020313635A4B1B6B03F002037B60FD
:104710007B6800233B60564B1B6B554A43F00803F4
:104720001363534B1B6B03F008033B603B68012290
:104730004FF4C0414F4803F0F9FB002241F60C0151
:104740004D4803F0F3FB002241F6F4414B4803F0DF
:10475000EDFB01224FF40041474803F0E7FB002244
:104760004FF4A051434803F0E1FB4FF4E8437B6171
:104770000123BB610023FB6100233B6207F11403AB
:1047800019463C4803F01EFA48F610237B610023CB
:10479000BB610023FB6107F114031946354803F0A0
:1047A00011FA49F60C037B610123BB610023FB6115
:1047B00000233B6207F1140319462F4803F002FA65
:1047C00020237B610023BB610023FB6107F11403FD
:1047D0001946294803F0F6F940F604437B610123AA
:1047E000BB610223FB6100233B6207F114031946FE
:1047F000224803F0E7F941F2F0037B610123BB613A
:104800000023FB6100233B6207F1140319461B4898
:1048100003F0D8F904237B614FF44413BB610123F7
:10482000FB6107F114031946154803F0CBF908237F
:104830007B614FF44413BB610123FB6107F1140357
:1048400019460E4803F0BEF900220D21082002F09F
:10485000A8FA082002F0C1FA00220D21092002F076
:10486000A0FA092002F0B9FA00BF2837BD4680BD82
:1048700000380240000802400000024000040240EC
:10488000000C024080B483B000AF78607B681B6886
:104890000D4A934211D10D4B1B6801330B4A136033
:1048A0000B4B01221A60094B1B68092B05DD074BD6
:1048B00000221A60074B01221A6000BF0C37BD4668
:1048C0005DF8047B704700BF00080040141400200E
:1048D0000C1400201014002080B594B000AF00F03C
:1048E00007FF00F099F8FFF7D1FEFFF799FE00F0FF
:1048F00029FEFFF775FB00F021FC00F071FAFFF7CD
:1049000003FCFFF76FFC00F031FBFFF70DFE00F03A
:10491000C7FB00F077FBFFF779FAFEF73DFD2E4865
:10492000FCF788FB2D48FCF785FB2D48FEF76AFB5A
:104930002C48FEF767FBFDF721FB2B48FDF72AF912
:104940002A4804F00DF82848FDF79CFD284B082262
:1049500000210020FEF7B8FFFFF796F9FDF70EFBE8
:10496000FEF76EFD204B5B6E224A12681A601E4BEA
:104970005B6E214A12685A601B4B5B6E1F4A1268BD
:104980009A60194B9B6B3B60174B5B6D7B60164BC2
:104990001B69DB6ABB601A4B1B68FB60194B1B6809
:1049A0003B61194B5B687B61184B1B6807EE903AC3
:1049B000F8EEE77AC7ED067A154B1B680133144A07
:1049C0001360144B1B68012BC8D13B4607211846C6
:1049D000FEF772FEC2E700BF300000207C0000201E
:1049E0006C020020A0020020F8010020AC1400207E
:1049F000480A0108780900207C090020800900206D
:104A0000900D00208C0D0020980000205005002003
:104A100054050020D402002080B594B000AF07F107
:104A2000200330220021184607F070FC07F10C0328
:104A300000221A605A609A60DA601A610023BB6033
:104A4000284B1B6C274A43F080531364254B1B6C87
:104A500003F08053BB60BB6800237B60224B1B6864
:104A6000214A43F4804313601F4B1B6803F48043C7
:104A70007B607B6801233B624FF480337B620223BF
:104A8000BB634FF48003FB6304233B64A8237B6474
:104A90000223BB640423FB6407F12003184603F0E0
:104AA00077FA0346002B01D000F020F80F23FB60BB
:104AB00002233B6100237B614FF4A053BB614FF4A1
:104AC0008053FB6107F10C030521184603F0D8FC65
:104AD0000346002B01D000F009F800BF5037BD4657
:104AE00080BD00BF003802400070004080B400AFBD
:104AF00072B600BFFEE7000080B483B000AF0023B1
:104B00007B60104B5B6C0F4A43F4804353640D4B46
:104B10005B6C03F480437B607B6800233B60094B44
:104B20001B6C084A43F080531364064B1B6C03F064
:104B300080533B603B6800BF0C37BD465DF8047B8B
:104B4000704700BF0038024080B400AFFEE780B479
:104B500000AFFEE780B400AFFEE780B400AFFEE731
:104B600080B400AFFEE780B400AF00BFBD465DF883
:104B7000047B704780B400AF00BFBD465DF8047B86
:104B8000704780B400AF00BFBD465DF8047B70473E
:104B900080B500AFFCF7F8FE00BF80BD80B500AF68
:104BA000042003F0DDF900BF80BD80B500AF082010
:104BB00003F0D6F900BF80BD80B500AF024802F017
:104BC000BFFA00BF80BD00BFC815002080B500AF90
:104BD000054800F0B0FF054800F0ADFF044800F0C4
:104BE000AAFF00BF80BD00BFAC120020F41200205D
:104BF0003C13002080B500AF024804F043F800BF2A
:104C000080BD00BFAC14002080B500AF024805F0A5
:104C100009F900BF80BD00BF8415002080B500AF3A
:104C2000024802F08DFA00BF80BD00BF841300204F
:104C300080B400AF01231846BD465DF8047B704781
:104C400080B582B000AF7860396007F0B1FB0346F1
:104C500016221A604FF0FF3318460837BD4680BD54
:104C600080B582B000AF78604FF0FF317868FFF711
:104C7000E7FFFEE780B586B000AFF860B9607A6004
:104C800000237B610AE0AFF300800146BB685A1C39
:104C9000BA60CAB21A707B6901337B617A697B683A
:104CA0009A42F0DB7B6818461837BD4680BD80B558
:104CB00086B000AFF860B9607A6000237B6109E0DC
:104CC000BB685A1CBA601B781846FEF713FD7B6957
:104CD00001337B617A697B689A42F1DB7B68184615
:104CE0001837BD4680BD80B483B000AF78604FF008
:104CF000FF3318460C37BD465DF8047B704780B41F
:104D000083B000AF786039603B684FF400525A605E
:104D1000002318460C37BD465DF8047B704780B40D
:104D200083B000AF7860012318460C37BD465DF8AC
:104D3000047B704780B485B000AFF860B9607A60DA
:104D4000002318461437BD465DF8047B7047000009
:104D500080B586B000AF7860144A154BD31A7B61DA
:104D60007B693B61134B1B68002B02D1114B124A2C
:104D70001A60104B1A687B6813443A699A4207D24A
:104D800007F016FB03460C221A604FF0FF3309E0D0
:104D9000084B1B68FB60074B1A687B681344054A85
:104DA0001360FB6818461837BD4680BD000002201E
:104DB00000040000181400209817002080B400AFF1
:104DC000064BD3F88830054A43F47003C2F88830A4
:104DD00000BFBD465DF8047B704700BF00ED00E0FA
:104DE00080B596B000AF07F1480300221A605A6000
:104DF0009A60DA6007F1400300221A605A6007F1F6
:104E0000240300221A605A609A60DA601A615A61BB
:104E10009A613B1D20220021184607F077FA514B7A
:104E2000514A1A604F4B00225A604E4B40229A6002
:104E30004C4B41F26702DA604A4B00221A61494B3F
:104E400000225A61474B80229A61464803F038FDA0
:104E50000346002B01D0FFF749FE4FF48053BB649B
:104E600007F1480319463F4804F0D6F80346002BE3
:104E700001D0FFF73BFE3B4803F0E2FD0346002B69
:104E800001D0FFF733FE70233B6400237B6407F1FE
:104E900040031946334804F079FD0346002B01D046
:104EA000FFF724FE60237B620023BB620023FB62CA
:104EB00000233B6300237B630023BB630023FB636E
:104EC00007F1240300221946264803F0E3FF0346B6
:104ED000002B01D0FFF70AFE07F124030422194634
:104EE000204803F0D7FF0346002B01D0FFF7FEFD5B
:104EF00007F12403082219461A4803F0CBFF0346A2
:104F0000002B01D0FFF7F2FD70237B6207F1240331
:104F10000C221946134803F0BDFF0346002B01D0B5
:104F2000FFF7E4FD00237B600023BB600023FB60F0
:104F300009233B6100237B614FF40053BB610023D5
:104F40003B623B1D1946074804F09CFD0346002BBD
:104F500001D0FFF7CBFD034800F034FA00BF58370B
:104F6000BD4680BD1C1400200000014080B586B005
:104F700000AF07F1080300221A605A609A60DA60F5
:104F80003B4600221A605A601D4B4FF080421A6067
:104F90001B4B53225A601A4B00229A60184B42F264
:104FA0000F72DA60164B00221A61154B80229A614B
:104FB000134803F085FC0346002B01D0FFF796FD54
:104FC0004FF48053BB6007F1080319460C4804F006
:104FD00023F80346002B01D0FFF788FD20233B6018
:104FE00000237B603B461946054804F0CFFC03468E
:104FF000002B01D0FFF77AFD00BF1837BD4680BDFA
:105000006414002080B586B000AF07F108030022C9
:105010001A605A609A60DA603B4600221A605A6051
:105020001D4B1E4A1A601C4B29225A601A4B002243
:105030009A60194B40F2E732DA60174B00221A618E
:10504000154B80229A61144803F03AFC0346002B6A
:1050500001D0FFF74BFD4FF48053BB6007F108030D
:1050600019460D4803F0D8FF0346002B01D0FFF787
:105070003DFD00233B6000237B603B46194606480C
:1050800004F084FC0346002B01D0FFF72FFD00BF86
:105090001837BD4680BD00BFAC140020000800409A
:1050A00080B586B000AF07F1080300221A605A608D
:1050B0009A60DA603B4600221A605A601D4B1E4A15
:1050C0001A601C4B00225A601A4B00229A60194B3E
:1050D0004FF0FF32DA60174B00221A61154B802225
:1050E0009A61144803F0ECFB0346002B01D0FFF754
:1050F000FDFC4FF48053BB6007F1080319460D48CF
:1051000003F08AFF0346002B01D0FFF7EFFC0023DA
:105110003B6000237B603B461946064804F036FCA2
:105120000346002B01D0FFF7E1FC00BF1837BD4656
:1051300080BD00BFF4140020000C004080B596B084
:1051400000AF07F1480300221A605A609A60DA60E3
:1051500007F1400300221A605A6007F1240300227D
:105160001A605A609A60DA601A615A619A613B1D4E
:1051700020220021184607F0C9F8514B514A1A6005
:105180004F4B00225A604E4B40229A604C4B41F2EA
:105190006702DA604A4B00221A61494B00225A61C9
:1051A000474B80229A61464803F08AFB0346002B56
:1051B00001D0FFF79BFC4FF48053BB6407F1480319
:1051C00019463F4803F028FF0346002B01D0FFF7A4
:1051D0008DFC3B4803F034FC0346002B01D0FFF765
:1051E00085FC70233B6400237B6407F14003194670
:1051F000334804F0CBFB0346002B01D0FFF776FCCD
:1052000060237B620023BB620023FB6200233B63BD
:1052100000237B630023BB630023FB6307F12403AC
:1052200000221946264803F035FE0346002B01D024
:10523000FFF75CFC07F1240304221946204803F021
:1052400029FE0346002B01D0FFF750FC07F1240391
:10525000082219461A4803F01DFE0346002B01D010
:10526000FFF744FC70237B6207F124030C221946EC
:10527000134803F00FFE0346002B01D0FFF736FC66
:1052800000237B600023BB600023FB6009233B619C
:1052900000237B614FF40053BB6100233B623B1D45
:1052A0001946074804F0EEFB0346002B01D0FFF738
:1052B0001DFC034800F086F800BF5837BD4680BD8E
:1052C0003C1500200004014080B588B000AF786034
:1052D0007B681B68364A93420ED10023FB61354B35
:1052E0005B6C344A43F001035364324B5B6C03F054
:1052F0000103FB61FB6956E07B681B68B3F1804FDB
:105300000ED10023BB612B4B1B6C2A4A43F00103D7
:105310001364284B1B6C03F00103BB61BB6942E0C3
:105320007B681B68244A934216D100237B61214B82
:105330001B6C204A43F0040313641E4B1B6C03F0E8
:1053400004037B617B69002204211E2001F029FDFA
:105350001E2001F042FD26E07B681B68174A93423D
:105360000ED100233B61134B1B6C124A43F0080320
:105370001364104B1B6C03F008033B613B6912E0A4
:105380007B681B680E4A93420DD10023FB60094BDA
:105390005B6C084A43F002035364064B5B6C03F0FA
:1053A0000203FB60FB6800BF2037BD4680BD00BF25
:1053B000000001400038024000080040000C00409E
:1053C0000004014080B58CB000AF786007F11C0389
:1053D00000221A605A609A60DA601A617B681B6862
:1053E000524A93423ED10023BB61514B1B6B504A42
:1053F00043F0020313634E4B1B6B03F00203BB61CC
:10540000BB6900237B614A4B1B6B494A43F0010394
:105410001363474B1B6B03F001037B617B694FF404
:105420006043FB6102233B6200237B620023BB627B
:105430000123FB6207F11C0319463E4802F0C2FB40
:105440004FF4E063FB6102233B6200237B62002395
:10545000BB620123FB6207F11C031946364802F0C8
:10546000B1FB5FE07B681B68344A93425AD100234A
:105470003B612F4B1B6B2E4A43F0010313632C4BF4
:105480001B6B03F001033B613B690023FB60284B6E
:105490001B6B274A43F002031363254B1B6B03F07E
:1054A0000203FB60FB680023BB60214B1B6B204A9F
:1054B00043F0040313631E4B1B6B03F00403BB6038
:1054C000BB688023FB6102233B6200237B620023D5
:1054D000BB620323FB6207F11C031946164802F066
:1054E00071FB0323FB6102233B6200237B620023E9
:1054F000BB620323FB6207F11C0319460D4802F04F
:1055000061FB4FF4E073FB6102233B6200237B628B
:105510000023BB620323FB6207F11C031946084802
:1055200002F050FB00BF3037BD4680BD0000014097
:105530000038024000040240000002400004014024
:105540000008024080B500AF104B114A1A600F4BA3
:10555000104A5A600D4B00229A600C4B0022DA6010
:105560000A4B00221A61094B0C225A61074B002298
:105570009A61064B0022DA61044804F00EFB0346F0
:10558000002B01D0FFF7B2FA00BF80BD84150020C8
:10559000004C004080841E0080B58AB000AF786067
:1055A00007F1140300221A605A609A60DA601A61E7
:1055B0007B681B68344A934261D100233B61334BC3
:1055C0001B6C324A43F400231364304B1B6C03F40E
:1055D00000233B613B690023FB602C4B1B6B2B4A78
:1055E00043F001031363294B1B6B03F00103FB60C2
:1055F000FB6803237B610223BB610023FB61032360
:105600003B6208237B6207F114031946204802F02D
:10561000D9FA204B204A1A601E4B4FF000625A60A4
:105620001C4B00229A601B4B0022DA60194B4FF48E
:1056300080621A61174B00225A61164B00229A6150
:10564000144B0022DA61134B00221A62114B002224
:105650005A62104801F0DCFB0346002B01D0FFF733
:1056600045FA7B680B4A9A630A4A7B689363002277
:105670000121342001F095FB342001F0AEFB00BF86
:105680002837BD4680BD00BF004C004000380240B6
:1056900000000240C815002040600240DFF834D00E
:1056A0000D480E490E4A002302E0D458C45004337A
:1056B000C4188C42F9D30B4A0B4C002301E0136051
:1056C0000432A242FBD3FFF779FB06F077FEFFF727
:1056D00003F970470000022000000020B004002001
:1056E000F0220108B004002098170020FEE7000017
:1056F00080B500AF0E4B1B680D4A43F40073136076
:105700000B4B1B680A4A43F480631360084B1B6809
:10571000074A43F480731360032001F037FB0F2026
:1057200000F008F8FFF7E8F90023184680BD00BF35
:10573000003C024080B582B000AF7860124B1A681E
:10574000124B1B7819464FF47A73B3FBF1F3B2FB9B
:10575000F3F3184601F04FFB0346002B01D0012361
:105760000EE07B680F2B0AD8002279684FF0FF30DB
:1057700001F017FB064A7B681360002300E0012359
:1057800018460837BD4680BDDC020020E402002038
:10579000E002002080B400AF034B1B681846BD46F2
:1057A0005DF8047B704700BF2816002080B584B0E8
:1057B00000AF7860FFF7EEFFB8607B68FB60FB68C6
:1057C000B3F1FF3F05D00A4B1B781A46FB68134420
:1057D000FB6000BFFFF7DEFF0246BB68D31AFA6822
:1057E0009A42F7D800BF00BF1037BD4680BD00BF4A
:1057F000E402002080B584B000AF78600023FB7322
:105800007B68002B01D1012333E07B681B6C002BEC
:1058100009D17868FEF77CFD7B6800225A647B68BA
:10582000002283F83C207B681B6C03F01003002BE4
:1058300018D17B681B6C23F4885323F0020343F0D8
:1058400002027B681A64786800F0EEFC7B68002234
:105850005A647B681B6C23F0030343F001027B68EE
:105860001A6401E00123FB737B68002283F83C206B
:10587000FB7B18461037BD4680BD000080B485B064
:1058800000AF78600023BB607B6893F83C30012B4D
:1058900001D10223B2E07B68012283F83C207B68BF
:1058A0001B689B6803F00103012B18D07B681B6801
:1058B0009A687B681B6842F001029A60524B1B6831
:1058C000524AA2FB03239A0C13465B001344BB60AD
:1058D00002E0BB68013BBB60BB68002BF9D17B6871
:1058E0001B689B6803F00103012B7AD17B681B6C5A
:1058F00023F4E06323F0010343F480727B681A64AD
:105900007B681B685B6803F48063002B07D07B68AF
:105910001B6C23F4405343F480527B681A647B6809
:105920001B6C03F48053B3F5805F06D17B685B6C1E
:1059300023F006027B685A6402E07B6800225A6406
:105940007B68002283F83C20314BFB607B681B683E
:105950006FF022021A60FB685B6803F01F03002BE4
:105960002AD17B681B682B4A934215D07B681B6841
:10597000294A934205D1264B5B6803F01F03002B95
:105980000AD07B681B68254A934236D1204B5B685E
:1059900003F01003002B30D17B681B689B6803F079
:1059A0004053002B29D17B681B689A687B681B6871
:1059B00042F080429A6020E07B681B68154A93425F
:1059C0001BD17B681B689B6803F04053002B14D1EC
:1059D0007B681B689A687B681B6842F080429A600B
:1059E0000BE07B681B6C43F010027B681A647B68D9
:1059F0005B6C43F001027B685A640023184614373D
:105A0000BD465DF8047B7047DC02002083DE1B434B
:105A100000230140002001400021014000220140FC
:105A200080B584B000AF786039600023FB607B688C
:105A30001B689B6803F48063B3F5806F13D17B68A8
:105A40001B689B6803F48073B3F5807F0BD17B6880
:105A50001B6C43F020027B681A647B68002283F889
:105A60003C20012363E0FFF795FEF86021E03B68EE
:105A7000B3F1FF3F1DD03B68002B07D0FFF78AFE34
:105A80000246FB68D31A3A689A4212D27B681B68B6
:105A90001B6803F00203022B0BD07B681B6C43F0E6
:105AA00004027B681A647B68002283F83C2003238D
:105AB0003DE07B681B681B6803F00203022BD6D114
:105AC0007B681B686FF012021A607B681B6C43F4E2
:105AD00000727B681A647B681B689B6803F0405304
