:020000040800F2
:10000000B808002001010008613900081534000813
:100010006D38000819070008954700080000000027
:10002000000000000000000000000000453B000848
:10003000C90900080000000063390008E13E00081B
:100040001B0100081B0100081B0100081B01000820
:100050001B0100081B0100081B0100081B01000810
:100060001B0100081B0100081B0100086D090008A6
:1000700085090008910900081B0100081B01000800
:100080001B0100081B0100081B0100081B010008E0
:10009000B9460008550700081B0100081B010008AD
:1000A0001B0100086D3F00081B0100081B01000830
:1000B0001B0100081B0100081B0100081B010008B0
:1000C0001B0100081B0100081B0100081B010008A0
:1000D0001B0100081B0100081B0100084D46000819
:1000E0001B0100081B0100081B010008DFF80CD0F1
:1000F00000F0ECF8004800472F480008B80800203E
:100100000648804706480047FEE7FEE7FEE7FEE7B1
:10011000FEE7FEE7FEE7FEE7FEE7FEE76B3F0008CF
:10012000ED00000840EA01039B0703D009E008C97D
:10013000121F08C0042AFAD203E011F8013B00F8AC
:10014000013B521EF9D27047D2B201E000F8012BF8
:10015000491EFBD270470022F6E710B513460A4647
:1001600004461946FFF7F0FF204610BD80EA010261
:1001700010B502F00043400022D04A001FD0010E0B
:1001800001EB1261C0F35600C2F3560240F40000C6
:1001900042F40002A0FB022000047F39140400D0C6
:1001A000401C50EA124001D44000491EC2B20C0665
:1001B00004EBD010401C4008802A02D003E000204D
:1001C00010BD20F00100002900DA0020184310BD06
:1001D000420005D0C0F3C7525242914201DC0020D8
:1001E000704700EBC1507047C10F80EAE0700844CF
:1001F000CA079623002100F03BB89623002211463F
:1002000000F036B800F0004220F00040C10DC0F30D
:10021000160040F400007F2901DA0020704796297B
:1002200003DCC1F19601C84001E096398840002AFC
:10023000F4D04042704720F00040C10DC0F31600DA
:1002400040F400007F2901DA00207047962903DC82
:10025000C1F19601C840704796398840704700291F
:10026000A8BF7047401C490008BF20F0010070473C
:1002700010B4B0FA80FC00FA0CF050EA010404BF9C
:1002800010BC704749B1CCF1200421FA04F411FAF2
:100290000CF118BF012121430843A3EB0C01CB1D36
:1002A0004FEA00614FEA102042BF002010BC7047A7
:1002B00000EBC35010440029A4BF10BC7047401C81
:1002C000490008BF20F0010010BC7047064C074DE4
:1002D00006E0E06840F0010394E807009847103416
:1002E000AC42F6D3FFF706FFAC500008CC50000834
:1002F00070B58C1810F8015B15F0070301D110F8E8
:10030000013B2A1106D110F8012B03E010F8016B14
:1003100001F8016B5B1EF9D12B0705D40023521E97
:100320000DD401F8013BFAE710F8013BCB1A921CFF
:1003300003E013F8015B01F8015B521EF9D5A142FD
:10034000D8D3002070BD000091F0000F04BF6FF003
:100350000040704710B54FF0010E90EA010F48BF02
:100360004FF0000E002848BF4042002948BF4942D4
:10037000B0FA80F4102CA8BF102400FA04F2C4F1E3
:10038000100CB2FBF1F0B0FA80F39C45A4BFCEF1A3
:10039000004010BD01FB1022B2FA82F464450EDA6F
:1003A000ACEB040C02FA04F200FA04F0B2FBF1F335
:1003B00001FB13221844B2FA82F46445F0DD02FA1C
:1003C0000CF200FA0CF0B2FBF1F318449EF0000FAF
:1003D00008BF404210BD0000214981FB00104FEAD8
:1003E000003000EB115000F18040810028BFC0F1C7
:1003F00000404000DFF85CC0C0F3895109B35CF8ED
:100400002120C1F500715CF821304FEA8021DFF82E
:1004100048C0A1FB0CC14FEA11214FF0000010446D
:10042000A0FB01C04FEA5000A3EB0000A0FB01C0FD
:1004300010444FEA500028BF4042001340F1000032
:100440007047DFF818C0A0FB0CC04FEAD02028BFCF
:100450004042704790480008A2DA0FC937CD0FC953
:10046000B7C17C5180FB01014FEAD04000EB413025
:1004700070470000204981FB00104FEA003000EB7C
:100480001150810028BFC0F100404000DFF85CC07F
:10049000C0F3895109B35CF82120C1F500715CF803
:1004A00021304FEA8021DFF848C0A1FB0CC14FEAA0
:1004B00011214FF000001044A0FB01C04FEA500092
:1004C000A3EB0000A0FB01C010444FEA500028BF7E
:1004D0004042001340F100007047DFF818C0A0FB55
:1004E0000CC04FEAD02028BF404270479048000817
:1004F000A2DA0FC937CD0FC9B7C17C5178B110F05E
:10050000004148BF4042B0FA80F3C3F18B0200FAC9
:1005100003F04FEA102062F3DE5041EA000070471A
:1005200080FB01014FEA106000EB012070470000E2
:1005300078B110F0004148BF4042B0FA80F3C3F1F7
:10054000860200FA03F04FEA102062F3DE5041EA1F
:100550000000704770B5044620688168C943C90728
:1005600016D1816821F00101816001F095FC0546FA
:1005700009E001F091FC401B022804D92068806842
:10058000C043C00706D020688068C043C007F0D0D1
:10059000002070BDA06A40F01000A062E06A40F048
:1005A0000100E062012070BD10B50146486A826A10
:1005B00012F0500F05D0006A026BBDE810400846EB
:1005C0001047816A41F40071816201688968C1F352
:1005D000424107290CD1017B51B9816A21F4807114
:1005E0008162816AC90403D4816A41F00101816298
:1005F00000F088FC10BD10B5406A816A41F04001EE
:100600008162C16A41F00401C16200F07DFC10BD4D
:1006100010B5406A00F077FC10BD0000F8B5044644
:100620000026009620688168C943C9072FD08168D9
:1006300041F001018160174817490068B0FBF1F0F3
:10064000009002E00098401E009000980028F9D128
:1006500001F022FC054615E001F01EFC401B0228BB
:1006600010D920688068C043C0070BD0A06A40F052
:100670001000A062E06A40F00100E06284F82460AB
:100680000120F8BD20688068C043C007E4D1002085
:10069000F8BD0000A401002040420F0010B502F098
:1006A00033FF00F023FABDE8104003F05BB910B54A
:1006B00002F02CFF00F022FABDE8104003F054B91C
:1006C00030B4029D0488AC421FD2641CA4B20480E2
:1006D00010488C4204D2002230BC402101F0D5BB2E
:1006E00011448C4204D2012230BC402101F0CDBB28
:1006F00019448C4204D2002230BC402101F0C5BB19
:10070000012230BC402101F0C0BB0021018030BC7F
:1007100070470000000C0140FEE7000000B58BB000
:10072000002001900290039004900590012109910E
:100730000790089106900E200A9001A9044800F045
:10074000D6FD002801D000F040F90BB000BD00003C
:10075000FC020020014800F0CABE0000FC0200209C
:1007600010B541600021C160082343610161017639
:100770000023C418D15C21775B1CDBB2082BF8D3B3
:10078000034600F11C02011D034800F037FD08B1CB
:10079000002010BD012010BDFC02002010B508484B
:1007A00001F0B1F8FFF7BAFF0221054800F014FD8F
:1007B000002803D0BDE8104000F007B910BD0000CC
:1007C000FC0200201FB500200290039000900190D1
:1007D0000E490A78012A17D108700D4A02A9131888
:1007E0001B7F0B54401CC0B20828F8D300206A4677
:1007F0000B5C1354401CC0B20828F9D304486A4665
:1008000012212438FFF7ACFF1FBD0000300000208C
:100810000C02002070B50446E06CE066E1682167D8
:10082000081A6067A16F411A206EFFF779FE05462E
:10083000616F606EFFF774FEE16F28444218E26753
:10084000606FA067D4F88000002801DA414200E020
:1008500001468A4205DD002801DA414200E00146F6
:10086000E167E26F002801DA414200E001464942B7
:100870008A4204DA002800DA40424042E06770BD54
:1008800070B5044654F8480FA06454F8401CE16465
:10089000081A2065616D411AE06BFFF741FE0546BD
:1008A000216D206CFFF73CFEA16D28444218A26523
:1008B000206D6065E06D483C002801DA414200E0AF
:1008C00001468A4206DD002801DA414200E0014685
:1008D000C4F8A010D4F8A020002801DA414200E0BA
:1008E000014649428A4205DA002800DA4042404285
:1008F000C4F8A00070BD10B5044604F13402111F05
:10090000081F00F047F994F8280003280ED300F0E0
:10091000EBF907280AD2DFE800F009040A10161CD8
:100920002200D4E90C0108444042E06210BD616B32
:10093000E06A08444042206310BD616BE06A0844ED
:100940004042206310BDD4E90B010844404260637B
:1009500010BDD4E90B0108444042606310BDD4E9E6
:100960000C0108444042E06210BD000010B502F0E6
:1009700089FF00F03FF8BDE81040014801F066B87B
:10098000B8020020014801F061B8000074040020A2
:10099000014801F05BB800003004002030B590F849
:1009A00040500124AC40C56B6C60046863604368D0
:1009B000102B04D0036899600068C26030BD0368E2
:1009C0009A600068C16030BD704772B6FEE710B52E
:1009D00000F03AF8002000F02DF84FF0207002F0FF
:1009E00063FF002002F098FF0021BDE81040084698
:1009F00002F08CBF10B50E4800F0F9F80C48FFF774
:100A00007AFF0B4803F0E6FE094803F027FF084889
:100A1000FFF700FF0648FFF733FF054803F0ECFE41
:100A20000348416C006CBDE8104003F099B9000028
:100A30004000002010B502F057FF02490120087065
:100A400010BD00004000002010B51E481C4A426244
:100A500082620021C162016341638163C1630164F9
:100A60004FF0E0634364184C046042608160C160F1
:100A7000016141618161C1610362144A8264144A67
:100A8000C264016541658165C16501664166816633
:100A9000104AC266104A02674167104A8267C167FE
:100AA000C0F88010C0F88410C0F88810C0F88C100E
:100AB000C0F890104FF40011C0F8941010BD000061
:100AC0001F85EBFFA000002090C2F5FF6766FAFFCC
:100AD00054E3FFFFCCCC14009999010099991100BF
:100AE000014803F0ABB800004000002010B5FFF74C
:100AF00055FEBDE8104003F0E5BD000070B500F004
:100B000077F90C4C0C4D58B1FFF75CFE246868680F
:100B100000F5FA70844202D303F0E4FD6C6070BD0E
:100B200024682868401C8442F9D303F0D1F82C6073
:100B300070BD0000000000202800002070B50428CF
:100B400001D3002070BD0E4901EB80042069FFF73E
:100B50004BFB1321FFF73CFBFFF754FB0949FFF761
:100B600081FC0546206AFFF73FFBFFF74BFB4CF685
:100B7000CD41FFF777FC28442062208AC00470BD75
:100B8000A80100203333070001484069FFF7B6BCD5
:100B9000400000202DE9F04180460F461546012017
:100BA000FFF7CCFF4FF453742146FFF75BFC4FF087
:100BB000C07640013146FFF7B3FCC8F800000320BF
:100BC000FFF7BCFF2146FFF74DFC40013146FFF720
:100BD000A7FC38600220FFF7B1FF2146FFF742FC77
:100BE00040013146FFF79CFC2860BDE8F0817CB5F0
:100BF0000446002002F05EFE4FF4034002F062FE65
:100C0000ADF800000546012002F054FE002002F07D
:100C100051FE4FF4044002F055FEADF802000646C6
:100C2000012002F047FEC6F38500E9B240EA8110D8
:100C3000ADF80400FFF7E1FA1021FFF7C9FAFFF75A
:100C4000E1FA4FF08041FFF77FFB00024FF034667E
:100C500040113146FFF706FC2169451A002D01DAE3
:100C600005F13465606841112846FFF7FBFB01E0A0
:100C7000A0F13460B042FBDC6561A06142F2BE319C
:100C8000FFF7F0FBE061FFF7F5FB40012062E06950
:100C9000FFF7A2FB400160627CBD000070B5054615
:100CA0000F4C696921606068081A0E49FFF7DAFB8A
:100CB0004CF6CC41A068FFF7D5FBD4E90020111A0F
:100CC00011F1B46F02DA01F1346104E0B1F1B46FF3
:100CD00001DDA1F1346169656260A16070BD000051
:100CE0003801002033330700014890F84C0070476A
:100CF0004401002010B5044694F84C00072816D291
:100D0000DFE800F01504162A3C506200E168606CD0
:100D1000FFF706FC6062A168606CFFF701FCE0620F
:100D2000626A216C891A081A40102063606110BD44
:100D3000E168606CFFF7F4FB4042E0612169606CA0
:100D4000FFF7EEFB4042E062E269216C891A081A63
:100D500040102063606110BDA168606CFFF7E0FB8C
:100D6000E0612169606CFFF7DBFB2062E269216CC6
:100D7000891A081A40102063606110BDA168606C78
:100D8000FFF7CEFB4042A061E168606CFFF7C8FB53
:100D900040422062A269216C891A081A401020631F
:100DA000606110BD2169606CFFF7BAFBA061E1686A
:100DB000606CFFF7B5FBA062A269216C891A081A62
:100DC00040102063606110BD2169606CFFF7A8FBD3
:100DD00040426062A168606CFFF7A2FB4042A062E3
:100DE000626A216C891A081A40102063606110BD84
:100DF000014800787047000022000020F8B5002369
:100E00000025009590F82420012A12D0012280F8B4
:100E100024204A681F26072A0DD20468676B521ED9
:100E200002EB82029640B7430E68964037436763F1
:100E30001AE00220F8BD0D2A0BD20468276BD21FDE
:100E400002EB82029640B7430E6896403743276311
:100E50000AE00468E76A0D3A02EB82029640B74363
:100E60000E6896403743E7620A6807260A2A0BD3C2
:100E70000468E7680A3A02EB42029640B7438E687C
:100E800096403743E76009E00468276902EB4202B5
:100E90009640B7438E689640374327610A68102A08
:100EA00001D0112A23D1144C0268A2421AD19468AD
:100EB00024021CD4946844F4000494600968102946
:100EC00015D10E490E4A0968B1FBF2F101EB81011F
:100ED0004900009102E00099491E00910099002903
:100EE000F9D104E0816A41F020018162012380F898
:100EF00024501846F8BD000000240140A401002041
:100F000040420F0070477047704700002DE9F041E4
:100F1000044600270025002C03D0A06A002618B143
:100F200008E00120BDE8F081E66284F824602046F4
:100F300000F07AF82046FFF70DFBA16A01F01001DE
:100F4000014305D0A06A40F01000A0620120E9E74B
:100F5000A16A21F4885141F00201A1626268E1694D
:100F6000237B0A4347EA43010A43A1684FF4807791
:100F7000B94208D0012906D0002194F814C0BCF170
:100F8000010F02D00AE03946F7E7F3B1A36A43F054
:100F90002003A362E36A43F00103E3622368D3F80A
:100FA00004C02CF4694C4CEA010CC3F804C021685D
:100FB0008B68DFF86CC003EA0C0313438B60A168F5
:100FC000B94209D0012907D009E0A3695B1E41EAB3
:100FD000433141F40061E1E7218A491E0D05216892
:100FE000CB6A23F470032B43CB62216889680D4BD5
:100FF0001940914207D1E662A16A21F0020141F055
:101000000101A1628EE7A06A20F0020040F010000A
:10101000A062E06A40F00100E062012082E7000087
:10102000FDF7E1FFFE0E1FFF70B586B006460024F7
:1010300002940394049405941A49306888422FD18D
:101040001949886940F400708861886900F400706B
:101050000190886940F004008861886900F004000C
:101060000190072002900320039002A90F4800F08E
:101070000DFE104D0E4828606C60AC608020E8606A
:1010800080002861800068612020A8610002E8617A
:10109000284600F08FFD08B1FFF797FC35626E62BD
:1010A00006B070BD0024014000100240000801405D
:1010B00008000240B80200202DE9F04704468946A6
:1010C0009246DFF8008120683F4F08F10406404552
:1010D00001D0B84207D1306810F4702F03D0012539
:1010E0002846BDE8F08794F8240001280BD00120A1
:1010F00084F824002046FFF791FA0546002125B127
:1011000084F82410ECE70220EBE7A06A40F60162C5
:10111000904340F48070A0622068B84218D13268D1
:1011200012F4702F14D0A26A42F48012A2623068C6
:10113000400505D5A06A20F4005040F48050A0621C
:10114000A06AC00412D5E06A20F00600E0620EE05A
:10115000A26A22F48012A26240684005F0D5A06A1B
:1011600020F4005040F48050A062E9E7E16284F886
:101170002410216A15488862216A1548C862216ACC
:101180001448086321686FF00200086020688168D5
:1011900041F480718160216853464C314A46206A8F
:1011A00000F03AFD20688168C1F34241072904D06C
:1011B000816841F48011816092E7816841F4A00167
:1011C00081608DE70024014000280140A905000846
:1011D00011060008F705000890F82020012A07D022
:1011E000022A05D0416A41F4802141620120704702
:1011F000006842690A43426100207047F0B590F8E8
:1012000020500468A468012D07D0022D05D0416A42
:1012100041F4802141620120F0BD04F0806504F0BA
:101220000066354301D1E5005BD5C4F30164022CAF
:1012300005D9416A41F4000141620120F0BD012558
:10124000A5401D608B684FF4C0759BB1CE6805EB5F
:10125000041733434E6843EAC6030668F3514FF45C
:10126000C273076803EB04130E69FE50097D012960
:1012700009D00DE00E88CB6805EB041743EA46530E
:101280000668F351EBE70168CE5846F48076CE50FD
:101290001179D379567941EA036193791B0443EAC2
:1012A000062319434FF4C676036806EB04169951DA
:1012B0001178D37841EA0361937852781B0443EAAA
:1012C000022211434FF4C473026803EB0413D1509C
:1012D000006805EB0411425842F001024250002020
:1012E000F0BD416A41F4001141620120F0BD10B52A
:1012F000026890F82030012B07D0022B05D0416AFC
:1013000041F480214162012010BDD2F8000240F07A
:101310000100C2F80002087D00F01F030120984080
:10132000D2F81C328343C2F81C32CB69B3B9D2F86D
:101330000C328343C2F80C328C894B6864F31F4330
:101340004C6902EBC404C4F840320C890B6864F3A6
:101350001F434C6902EBC404C4F84432CB69012B2F
:1013600016D1D2F80C320343C2F80C320C884B6809
:1013700064F31F434C6902EBC404C4F840320C8987
:10138000CB6864F31F434C6902EBC404C4F84432D5
:101390008B697BB1D2F804320343C2F804320B6983
:1013A00073B1D2F814320343C2F81432096A012926
:1013B0000CD010E0D2F804328343C2F80432EEE7D6
:1013C000D2F814328343C2F81432EFE7D2F81C1279
:1013D0000143C2F81C12D2F8000220F00100C2F84A
:1013E0000002002010BD704730B590F82040012C5D
:1013F00007D0022C05D0416A41F4802141620120CE
:1014000030BD21B104682469A4075FD003E00468FB
:10141000E468A40754D04FF4D874056804EB0114B1
:101420002D5905F004059560F5B305682D59ED08B3
:10143000556005682C5904F00204D4604FF4DA7446
:10144000056804EB01142D5905F00F0515610568B9
:101450002D59C5F30725956105682C59240C546155
:101460004FF4DC72046802EB0112A4581C7004688B
:10147000A458240A5C700468A458240C9C70046866
:10148000A258120EDA704FF4DE72046802EB0112F9
:10149000A4581C710468A458240A5C710468A458F8
:1014A000240C9C71046800E016E0A258120EDA7158
:1014B000B9B10068016941F020010161002030BD2F
:1014C000416A41F400114162012030BD416A41F49A
:1014D00000114162012030BD05682D596D0D156068
:1014E000A7E70068C16841F02001C160E6E72DE987
:1014F000F05F0546002428684669D0F804908768A4
:10150000D0F80CA0D0F810B0D0F81880F10748D06F
:10151000F90714D001218160B80703D5284600F0EF
:101520001FFA0CE0780702D54FF4006407E0380793
:1015300002D54FF4805402E0284600F010FAF80576
:1015400016D529684FF480708860B80503D5284601
:1015500000F008FA0CE0780502D544F4005407E0E6
:10156000380502D544F4804402E0284600F0F9F939
:10157000F80316D529684FF480308860B80303D586
:10158000284600F0F1F90CE0780302D544F4004459
:1015900007E0380302D544F4803402E0284600F026
:1015A000E2F9300707D55FEACA6004D544F4007455
:1015B00029681020C86070074FF0080707D55FEA58
:1015C0000A7004D52868C760284600F07DF9B00786
:1015D00006D52868C068800702D0284600F076F952
:1015E000700607D55FEACB6004D544F480642968AF
:1015F00010200861B00607D55FEA0B7004D5286893
:101600000761284600F07CF9F00606D528680069D5
:10161000800702D0284600F074F9B00308D55FEACD
:10162000C96005D5296810204860284600F06AF98D
:10163000F00307D55FEA097004D52868476028469B
:1016400000F093F9300446D55FEA497040D5F005C3
:1016500004D55FEAC87001D044F00104B00504D598
:101660005FEA887001D544F00204700504D55FEA92
:10167000487001D544F00404300529D518F0700FE6
:1016800026D008F07000402815D006DC102809D0BC
:1016900020280AD0302816D10AE050280ED0602821
:1016A00011D10EE044F008040DE044F010040AE00B
:1016B00044F0200407E044F0400404E044F08004D7
:1016C00001E044F480742868816921F0700181612F
:1016D000296804204860002C05D0686A20436862AD
:1016E0002846FFF780FEBDE8F09F70B50446002C49
:1016F00003D094F8200010B104E0012070BD204612
:1017000000F09CF82068016841F00101016000F0E0
:10171000C3FB054605260CE000F0BEFB401B0A2873
:1017200007D9606A40F40030606284F820600120CC
:1017300070BD20684068C007EED02068016821F0C5
:101740000201016000F0A8FB05460CE000F0A4FBDC
:10175000401B0A2807D9606A40F40030606284F8B0
:101760002060012070BD206840688007EED4207E94
:1017700001283FD02068016821F080010160607E6F
:1017800001283DD02068016821F040010160A07E61
:1017900001283BD02068016821F020010160E07E33
:1017A000012839D02068016841F010010160207FD4
:1017B000012837D02068016821F008010160607FAE
:1017C000012835D02068016821F004010160D4E9C6
:1017D00002010843D4E90412114308436168491E19
:1017E00008432168C86100206062012084F820005D
:1017F000002070BD2068016841F080010160BEE7F3
:101800002068016841F040010160C0E7206801687C
:1018100041F020010160C2E72068016821F0100159
:101820000160C4E72068016841F008010160C6E773
:101830002068016841F004010160C8E710B586B076
:101840000021029103910491059100681B4988428F
:1018500032D11B48C16941F00071C161C16901F019
:1018600000710191816941F004018161806900F09A
:10187000040001904FF400600290124C02A920462F
:1018800000F004FAA11402910221039103210591B1
:1018900002A9204600F0FAF900220121142000F0EC
:1018A0006BFB142000F05AFB00221146152000F0BB
:1018B00063FB152000F052FB06B010BD0064004031
:1018C00000100240000801407047000010B5094AAE
:1018D000016891420DD1084B0021A3F11C02FFF7D2
:1018E00083FD18B1BDE81040FFF76FB80349012030
:1018F000087010BD00640040280200203000002065
:1019000070477047704770B5044694F8200001286E
:1019100005D0606A40F400206062012070BD0220A2
:1019200084F820002068016821F00101016000F0C6
:10193000B3FA05460DE000F0AFFA401B0A2808D9BB
:10194000606A40F400306062052084F820000120C5
:1019500070BD20684068C007EDD1606270BD7047FF
:1019600070477047704770477047704710B590F8E0
:1019700021100022022905D00421816380F8202053
:10198000012010BD01680B6823F00E030B60016895
:101990000B6823F001030B6090F84030C46B012109
:1019A00001FA03F3636080F8211080F820201046CC
:1019B00010BD000010B5002490F82110022903D0BA
:1019C0000421816301243DE001680A6822F00E02CF
:1019D0000A6001680A6822F001020A601A4A016876
:1019E000914201D1012121E0174A1432914201D1E3
:1019F00010211BE0144A2832914201D1891515E0CB
:101A0000114A3C32914201D189140FE00E4A503202
:101A1000914202D14FF4803108E00B4A6432914286
:101A200002D14FF4801101E04FF08071064A083A6C
:101A30005160012180F82110002180F82010416BB5
:101A400001B18847204610BD080002402DE9F05F33
:101A5000C16B0A6801680B68046C4FF0040A0AFA4B
:101A600004FA4E4D4E4E4F4FDFF83CC1DFF83C813B
:101A7000DFF83C911AEA020F31D05FEA437A2ED5A3
:101A80000A68920603D40A6822F004020A60016818
:101A9000A94201D1042119E0B14201D1402115E050
:101AA000B94202D14FF4806110E0614502D14FF498
:101AB00080410BE0414502D14FF4802106E04945C9
:101AC00002D14FF4800101E04FF08061334A083ABF
:101AD0005160C16A00295FD0BDE8F05F08474FF050
:101AE000020E0EFA04FE1EEA020F4FF0000A4FF03B
:101AF000010B35D05FEA837E32D50A68920605D4A1
:101B00000A6822F00A020A6080F821B00168A9423E
:101B100001D1022119E0B14201D1202115E0B942E1
:101B200002D14FF4007110E0614502D14FF4005131
:101B30000BE0414502D14FF4003106E0494502D1A6
:101B40004FF4001101E04FF00071144A083A51605F
:101B500080F820A0816A00291ED0BDE8F05F084708
:101B60000825A540154217D01A0715D50A6822F096
:101B70000E020A6090F84010C26B0BFA01F151603E
:101B8000C0F838B080F821B080F820A0016B00299F
:101B900002D0BDE8F05F0847BDE8F09F08000240B2
:101BA0001C00024030000240440002405800024045
:101BB0006C00024030B5002827D0001D144A50F8B0
:101BC000041C14230A44B2FBF3F29200C263114ACC
:101BD0008263022242770A6843F6F0739A43D0E99F
:101BE00000342343D0E902452C43234304692343B3
:101BF000446923438469234313430B6000214163F9
:101C0000012242770177002030BD012030BD000065
:101C1000F8FFFDBF0000024070B50446002594F8AF
:101C2000200001280CD0012084F8200094F82160C5
:101C30000020012E06D084F820000225284670BD21
:101C4000022070BD022684F82160A0632068066827
:101C500026F0010606602046FEF7A0FEE06A28B1E5
:101C60002068016841F00E01016009E02068016808
:101C700021F0040101602068016841F00A0101605F
:101C80002068016841F001010160D7E72DE9F84FB4
:101C900000240023DFF8C4914FF00F0809F1040A73
:101CA0000AF1040B0BF1040ED1E00127A7403A40E2
:101CB000BA4275D1DFF8A8C14D68A5EB0C066545A1
:101CC0002BD00DDC032D34D005DC35B3012D19D01C
:101CD000022D2FD11BE0112D16D0122D2AD119E083
:101CE000B6F5881F19D006DCB6F5803F15D0B6F5DD
:101CF000801F1FD111E0B6F5001F0ED0B6F5041FEE
:101D000018D10AE0CB6815E0CB681B1D12E0CB6848
:101D100008330FE0CB680C330CE08B6823B1012B48
:101D200004D00823476105E0042303E0082307618A
:101D300000E00023FF2A01D8054601E000F1040578
:101D400002D84FEA840603E0A4F108064FEA8606AB
:101D50002F6808FA06FC27EA0C0703FA06F647EA9A
:101D600006072F604D68ED0070D53E4DAE6946F018
:101D70000106AE61AD6905F0010500953A4D24F00C
:101D800003067719BE68A5072D0F08FA05FC26EA99
:101D90000C06DFF8D8C0604503D14FF0000C17E007
:101DA00054E0DFF8CCC0604502D14FF0010C0FE0E9
:101DB000DFF8C0C0604502D14FF0020C08E0DFF848
:101DC000B8C0604502D14FF0030C01E04FF0040CA5
:101DD0000CFA05FC4CEA060CC7F808C04D68ED0388
:101DE00005D5D9F800501543C9F8005004E0D9F8DA
:101DF00000509543C9F800504D68AD0305D5DAF899
:101E000000501543CAF8005004E0DAF8005095433A
:101E1000CAF800504D68ED0205D5DBF800501543B7
:101E2000CBF8005004E0DBF800509543CBF80050AD
:101E30004D68AD0205D5DEF800501543CEF80050D0
:101E400004E0DEF800509543CEF80050641C0A68A8
:101E500032FA04F57FF429AFBDE8F88F00040140A1
:101E60000000111000100240000001400008014075
:101E7000000C01400010014000140140806808423D
:101E800001D00120704700207047002A01D0016175
:101E9000704709040161704701488068704700007D
:101EA00098010020024881680278114481607047DF
:101EB0009801002010B50748016841F01001016049
:101EC000032000F079F8002000F006F800F026F872
:101ED000002010BD0020024070B504460D4D4FF4A7
:101EE0007A712878B1FBF0F00B490968B1FBF0F08A
:101EF00000F04AFD08B1012070BD102C07D200226D
:101F00002146501E00F038F86C60002070BD0120A2
:101F100070BD000098010020A401002008B50D4804
:101F2000816941F001018161816901F00101009144
:101F3000C16941F08051C161C06900F080500090DA
:101F4000062000F039F80449486820F0E060486055
:101F500008BD00000010024000000140002809DB1D
:101F600000F01F02012191404009800000F1E020B3
:101F7000C0F8001170470000F0B40D460D4B1B680F
:101F8000C3F30223C3F10704042C00D90424191D50
:101F9000072901D2002300E0DB1E012606FA04F126
:101FA000491E294099409E40761E16403143F0BCA0
:101FB00002F0F1BB0CED00E000F00701054A1068EB
:101FC0004FF6FF03184040EA012003490843106020
:101FD000704700000CED00E00000FA052DE9F84321
:101FE0000446DFF8F8802078C0075FD00027D8F8D3
:101FF0001C00C0000BD4D8F81C0040F08050C8F87A
:102000001C00D8F81C0000F0805000900127344DCF
:102010002868C00512D4286840F480702860FFF753
:102020003BFF064607E0FFF737FF801B642802D915
:102030000320BDE8F8832868C005F4D5D8F820004F
:1020400000F4407010B3A18801F4407181421DD0AA
:10205000D8F8200020F44070224901220A600022B2
:102060000A60C8F82000C00710D0FFF715FF05462A
:1020700041F2883606E0FFF70FFF401BB04201D95E
:102080000320D6E7D8F820008007F4D5D8F8200040
:10209000616820F440700843C8F82000012F05D182
:1020A000D8F81C0020F08050C8F81C002078800769
:1020B00007D5D8F80400A16820F440400843C8F8C8
:1020C00004002078C00607D5D8F80400E16820F4A1
:1020D00080000843C8F804000020AAE7001002406E
:1020E00000700040400442422DE9F04704460D468E
:1020F000002C17D0DFF83081D8F8000000F007007E
:10210000A84211D2D8F8000020F007002843C8F8F0
:102110000000D8F8000000F00700A84204D0012019
:10212000BDE8F0870120FBE72068404E810712D50B
:10213000400703D5706840F4E060706020780007C5
:1021400003D5706840F4605070607068A16820F03A
:10215000F000084370602078C0072CD06068012828
:1021600006D0022809D0316889070BD40120D7E7AF
:102170003168890306D40120D2E73168890101D48E
:102180000120CDE7716821F0030101437160FFF781
:1021900083FE074641F2883906E0FFF77DFEC01B4B
:1021A000484501D90320BBE77068616800F00C0066
:1021B000B0EB810FF1D1D8F8000000F00700A84281
:1021C0000ED9D8F8000020F007002843C8F8000016
:1021D000D8F8000000F00700A84201D001209FE7D6
:1021E0002078400705D57068E16820F4E060084376
:1021F00070602078000706D57068216920F460506F
:1022000040EAC100706000F03FF87168084AC1F30D
:102210000311515CC8400749086007480068FFF790
:102220005BFE00207CE7000000200240001002401E
:1022300094500008A40100209C010020014800687F
:1022400070470000A401002000B5FFF7F7FF044924
:102250004968044AC1F30221515CC84000BD000036
:1022600000100240A450000800B5FFF7E7FF044942
:102270004968044AC1F3C221515CC84000BD000056
:1022800000100240A450000885B014A090E80E0091
:10229000C068CDE902230191049014A00068009069
:1022A000134B5968134801F00C02042A10D0082A75
:1022B0000ED101A8C1F38342805CC9030AD55968D5
:1022C000C1F340411DF801100A4A5043B0FBF1F040
:1022D00005B0704708494843FAE7000002030405C7
:1022E000060708090A0B0C0D0E0F10100102000062
:1022F0000010024000127A0000093D002DE9F84F5D
:102300000446002C0ED02078D94DC0075ED06868F6
:10231000C0F3810001280BD06868C0F38100022857
:1023200003D00CE00120BDE8F88F6868C00306D533
:10233000286880034AD56068A8BB0120F3E760687D
:10234000B0F5803F11D0A8B1B0F5A02F1BD0286800
:1023500020F480302860286820F48020286060689D
:1023600030B3FFF799FD06461EE0286840F4803040
:102370002860F4E7286820F480302860286820F47A
:1023800080202860EBE7286840F4802028602868D7
:1023900040F480302860E2E7FFF77EFD801B642870
:1023A00002D90320BFE711E028688003F4D50DE0CF
:1023B000FFF772FD064606E0FFF76EFD801B6428FE
:1023C00001D90320AFE728688003F5D42078DFF82F
:1023D000A48280074FF0010A4FF0000945D56868D4
:1023E00010F00C0F07D06868C0F38100022812D1EA
:1023F0006868C0030FD42868800704D520690128C5
:1024000001D001208FE72868616920F0F80040EAD8
:10241000C100286029E02069B8B1C8F800A0FFF722
:102420003BFD064606E0FFF737FD801B022801D979
:10243000032078E728688007F5D52868616920F0CF
:10244000F80040EAC10028600FE0C8F80090FFF7EC
:1024500023FD064606E0FFF71FFD801B022801D979
:10246000032060E728688007F5D42078000726D588
:102470008148A16999B1C0F800A0FFF70DFD06469B
:1024800006E0FFF709FD801B022801D903204AE777
:10249000686A8007F5D5012001F0A6FA0FE0C0F8C0
:1024A0000090FFF7F9FC064606E0FFF7F5FC801BFD
:1024B000022801D9032036E7686A8007F5D420781E
:1024C000400773D50026E869C00008D4E86940F0E9
:1024D0008050E861E86900F0805000900126DFF844
:1024E0009CB1DBF80000C00514D4DBF8000040F418
:1024F0008070CBF80000FFF7CFFC074606E0FFF73F
:10250000CBFCC01B642801D903200CE7DBF80000DA
:10251000C005F4D5E068012812D0B0B105281DD05F
:10252000286A20F001002862286A20F0040028624E
:10253000E06841F2883B28B3FFF7AEFC07461DE098
:10254000286A40F001002862F2E7286A20F00100C2
:102550002862286A20F004002862E9E7286A40F02F
:1025600004002862286A40F001002862E0E7FFF7D3
:1025700093FCC01B584501D90320D4E6286A800784
:10258000F5D50DE0FFF788FC074606E0FFF784FC71
:10259000C01B584501D90320C5E6286A8007F5D439
:1025A000012E03D1E86920F08050E861E069A0B312
:1025B0006968C1F38101022946D0022805D0C8F814
:1025C0006090FFF769FC04463AE0C8F86090FFF7B6
:1025D00063FC064606E0FFF75FFC801B022801D97A
:1025E0000320A0E628688001F5D4206AB0F5803F7A
:1025F00005D16868A16820F4003008436860D4E918
:1026000008010843696821F4741108436860C8F838
:1026100060A0FFF741FC044607E026E0FFF73CFC22
:10262000001B022801D903207DE628688001F5D52A
:102630001BE0FFF731FC001B022801D9032072E6E2
:1026400028688001F5D410E001280CD06868226A5F
:1026500000F48031914204D1616A00F47010884224
:1026600003D001205FE601205DE600205BE600006C
:1026700000100240000042428004424200700040CC
:1026800070B50446002C09D0606A002540B1256170
:102690006561A56294F8510040B10CE0012070BD65
:1026A0006068B0F5827FF4D0E561F2E784F85050BD
:1026B000204600F03FF8022084F8510020680168AD
:1026C00021F040010160A088218900F4827001F4AA
:1026D00004410843A18901F400610843217C01F011
:1026E00002010843217D01F001010843218B01F41F
:1026F00000710843217F01F03801084394F820104D
:1027000001F080010843218D01F400510843216844
:102710000860A069042101EA10402168486020682F
:10272000C16921F40061C1616565012084F851002F
:10273000002070BD30B585B000240194029403944C
:10274000049400681449884223D11448816941F4F3
:1027500080518161816901F480510091816941F06A
:1027600004018161806900F004000090A0200190C4
:102770000220029003200490094D01A92846FFF78A
:1027800085FA402101910294039401A92846FFF79C
:102790007DFA05B030BD000000300140001002405D
:1027A000000801402DE9F84F04460A9E8A469346E8
:1027B0001F4601254FF0000894F8500001280ED064
:1027C000012084F85000FFF767FB814694F8510020
:1027D000616801280DD0B1F5827F07D102E00220A7
:1027E000BDE8F88FA16809B9042802D04FF00208AB
:1027F000C3E0BAF1000F28D0BBF1000F25D038009C
:1028000023D094F85100042802D0052084F8510008
:1028100000206065C4F838B0E787A787C4F830A007
:10282000E786A7862064606420680168490603D4AF
:10283000016841F040010160E068B0F5006F07D029
:102840006068E8B3012F48D07DE04FF0010894E0C4
:10285000606808B1012F39D1206B21680088C860F9
:10286000206B801C2063E08E401EE0862EE02068F6
:10287000816889070DD5E18E59B1012D09D1216BF0
:102880000988C160206B801C2063E08E401EE086BA
:10289000002520688168C9070BD0E18F49B1C06865
:1028A000A16B0880A06B801CA063E08F401EE087B6
:1028B0000125FFF7F1FAA0EB0900B04206D300E0D2
:1028C0000BE0701C02D04FF0030856E0E08E0028A9
:1028D000CDD1E08F0028CAD13BE0206B2168007881
:1028E0000873206B401C2063E08E401EE0862AE0C7
:1028F0002068816889070DD5E18E59B1012D09D174
:10290000216B09780173206B401C2063E08E401E10
:10291000E086002520688168C9070BD0E18F49B1A6
:10292000C068A16B0870A06B401CA063E08F401EC4
:10293000E0870125FFF7B0FAA0EB0900B04201D310
:10294000701C11D186B1E08E0028D1D1E08F002813
:10295000CED14A463146204601F084F838B14FF0D6
:1029600001082020606508E04FF0030805E0A0683A
:1029700018B92068C16880680090012050346070E8
:102980000020207040462BE710B5401EB0F1807F3C
:1029900001D3012010BD4FF0E02460610F216017CA
:1029A00001F0F9FE0020A06107202061002010BD89
:1029B0007047704710B590F83C20012A22D00122C0
:1029C00080F83C20CA6800238C6822F440722243BD
:1029D0004C6822F4806222430C6822F40062224395
:1029E0000C6922F4805222434C6922F400522243A3
:1029F000C96922F480420A4301684A6480F83C3085
:102A0000002010BD022010BD70B590F83C20012AB6
:102A100025D0012680F83C60022280F83D20026823
:102A20005468936824F070050C682C4354600D4C76
:102A30000268A24208D0B2F1804F05D00A4CA242EF
:102A400002D00A4CA24204D123F080034968194302
:102A500091603C30467000210170002070BD022062
:102A600070BD0000002C0140000400400008004040
:102A700010B50446002C03D094F83D0010B107E0D7
:102A8000012010BD002084F83C00204600F016F81C
:102A9000022084F83D00211D206801F089FA012000
:102AA0003D3460726070A070E07020716071A07140
:102AB000E07120722070002010BD000008B5006891
:102AC0000B49884212D10B48816941F40061816150
:102AD000806900F400600090002211461920FFF781
:102AE0004BFABDE808401920FFF738BA08BD0000CE
:102AF000002C01400010024090F83D10012901D047
:102B000001207047022180F83D100168CA6842F038
:102B10000102CA6000680E49884208D0B0F1804FB7
:102B200005D00C49884202D00B49884209D18168FE
:102B300001F00701062908D0016841F00101016098
:102B400003E0016841F001010160002070470000CE
:102B5000002C0140000400400008004070B504460D
:102B600094F83C00012817D0012584F83C5002203D
:102B700084F83D002068826822F0770222F47F42C8
:102B800082600868502831D00DDC20284DD005DC4B
:102B9000B0B310284ED148E0022070BD302844D098
:102BA000402847D137E060282BD0702806D0B0F5F8
:102BB000805F3FD0B0F5005F3CD10BE0CB68D1E93E
:102BC0000121206801F037FA2068816841F077011F
:102BD00081602FE0CB68D1E90121206801F02BFA58
:102BE0002068816841F48041816023E0CA684968B7
:102BF000206801F0E9FA5021206801F026FA19E076
:102C000013E0CA684968206801F0EFFA6021206883
:102C100001F01BFA0EE0CA684968206801F0D4FA96
:102C20004021206801F011FA04E0226801461046B4
:102C300001F00BFA3C3465700020207070BD7047C5
:102C400070B50446206801694FF00005C943890743
:102C500016D4C168C943890712D4E91E0161012055
:102C6000207720688069800703D02046FFF7E7FFC0
:102C700005E0204600F0C2F8204600F04FF9257725
:102C800020680169C943490718D4C168C943490785
:102C900014D46FF00401016102202077206880695C
:102CA00010F4407F03D02046FFF7C9FF05E020461F
:102CB00000F0A4F8204600F031F92577206801697A
:102CC000C943090717D4C168C943090713D46FF072
:102CD00008010161042020772068C069800703D0C3
:102CE0002046FFF7ACFF05E0204600F087F82046BD
:102CF00000F014F9257720680169C943C90618D482
:102D0000C168C943C90614D46FF0100101610820DD
:102D100020772068C06910F4407F03D02046FFF779
:102D20008EFF05E0204600F069F8204600F0F6F836
:102D3000257720680169C943C90708D1C168C9431B
:102D4000C90704D1891E0161204600F03FF92068BF
:102D50000169C943090609D4C168C943090605D4F4
:102D60006FF0800101612046FFF722FE20680169B3
:102D7000C943490609D4C168C943490605D46FF05F
:102D800040010161204600F022F920680169C94331
:102D900089060BD4C168C943890607D46FF02001A6
:102DA00001612046BDE87040FFF703BE70BD000022
:102DB00000B585B000210191029103910491006852
:102DC0000B49884212D10B48816941F004018161AD
:102DD000806900F0040000904FF4E0600190022050
:102DE0000290049001A90448FEF750FF05B000BD11
:102DF000002C01400010024000080140704770B5EF
:102E000004460D4694F83C0001280AD0012084F8BD
:102E10003C0042B1042A1AD0082A2DD00C2A53D1E2
:102E20003EE0022070BD2946206801F017F92068B5
:102E3000816941F0080181612068816921F0040104
:102E40008161206881692A69114381613CE02946DA
:102E5000206801F033F92068816941F400618161E3
:102E60002068816921F480618161206881692A6913
:102E700041EA0221816127E02946206801F050F9EA
:102E80002068C16941F00801C1612068C16921F071
:102E90000401C1612068C1692A691143C16113E05D
:102EA0002946206801F06CF92068C16941F400618D
:102EB000C1612068C16921F48061C1612068C16974
:102EC0002A6941EA0221C161002084F83C0070BDFA
:102ED00010B50446002C03D094F83D0010B107E073
:102EE000012010BD002084F83C00204600F015F8B9
:102EF000022084F83D00211D206801F059F80120CE
:102F00003D3460726070A070E07020716071A071DB
:102F1000E07120722070002010BD704770470000E3
:102F200010B50446002909D004290AD008290BD07D
:102F300094F8410001280AD0012010BD94F83E0009
:102F4000F8E794F83F00F5E794F84000F2E7022034
:102F500039B3042928D0082929D084F84100012256
:102F6000206801F05BF816492068884203D1426C62
:102F700042F4004242642068884208D0B0F1804F99
:102F800005D01049884202D00F49884212D1816889
:102F900001F00701062911D0016841F0010101602B
:102FA0000CE084F83E00DAE784F83F00D7E784F8C5
:102FB0004000D4E7016841F001010160002010BD2C
:102FC000002C01400004004000080040704770479A
:102FD000704710B5044620684169C1F3C01194F8E8
:102FE0003D20212A0BD151B1416921F0800141617D
:102FF000606B08B1FEF7BAFC204601F0F9F92068D1
:103000004169C1F3801194F83E20222A0BD151B1BD
:10301000416921F040014161A06B08B1FEF7A6FCB7
:10302000204601F0C0F9002010BD7047F8B50446F5
:1030300022681068D168536900F00F05002D08D18F
:10304000860606D58E0604D52046BDE8F84001F078
:10305000D8B90026002D61D003F0010501F4907766
:103060002F435BD0C20705D0CA0503D5226C42F0BE
:1030700001022264420705D5DA0703D0226C42F030
:1030800002022264820705D5DA0703D0226C42F0DF
:1030900004022264020707D501F020022A4303D06C
:1030A000226C42F008022264226C002A2CD0800696
:1030B00004D5880602D5204601F0A3F920684069AE
:1030C000C0F38010216C01F00801014321D020469B
:1030D00001F069F920684169490616D5416921F076
:1030E00040014161A06B60B143494163A06BFEF7B1
:1030F00061FC002808D0A06B416B01B0BDE8F04036
:1031000008472046FFF791FFF8BD2046FFF78DFFE7
:10311000F8BD2046FFF789FF2664F8BD236B012B1D
:1031200057D1C30655D5CB0653D5106850680090CB
:1031300050694FF0200340062DD5A16B0868406808
:1031400080B20028E9D0A58D8542E6D9E08588695E
:10315000202818D0D06820F48070D06020684169A1
:1031600021F0010141612068416921F04001416184
:1031700084F83E3026632068C16821F01001C160E8
:10318000A06BFEF7F3FBA08DE18D401A81B22046C3
:10319000FFF71EFFF8BDA08DE18D401A81B2E08DD2
:1031A0000028F7D00029F5D0D06820F49070D060C6
:1031B0002068426922F00102426184F83E302663B1
:1031C0002068C26822F01002C2602046FFF700FFAC
:1031D000F8BD020606D50A0604D52046BDE8F8402B
:1031E00001F004BA4006F3D54806F1D52046BDE803
:1031F000F84001F0F0B80000A142000870B50446A4
:10320000002C04D094F83D00002510B106E0012008
:1032100070BD84F83C50204600F022F8242084F849
:103220003D002068C16821F40051C160204601F0D2
:1032300047F92068016921F49041016120684169E2
:1032400021F02A0141612068C16841F40051C16048
:103250002564202084F83D0084F83E00002070BDE5
:103260002DE9F04186B004460025029503950495AA
:1032700005953249206888425DD13148C16941F4E1
:103280008021C161C16901F480210191816941F00E
:1032900008018161806900F0080001904FF48068A6
:1032A000CDF808800220039003200590254E02A946
:1032B0003046FEF7EBFCF01402900395049502A94A
:1032C0003046FEF7E3FC214E1F4830607560B56064
:1032D0008027F760356175612020B061F561304667
:1032E000FEF768FC08B1FDF770FBA6637462164830
:1032F000164E14384436306010207060B560F760A8
:1033000035617561B561F5613046FEF753FC08B172
:10331000FDF75BFB66637462012211462720FEF70E
:103320002BFE2720FEF71AFE084942466C3901F1B0
:10333000280000F00DF806B0BDE8F081004800401C
:1033400000100240000C0140300002403004002018
:1033500090F83E30202B01D00220704759B152B175
:1033600090F83C30012B08D0012380F83C3000233A
:10337000036301F001B901207047022070477047D4
:1033800070470000F7B5044694F83D00202801D0AE
:103390000220FEBD019979B372B394F83C00012874
:1033A0002DD0012084F83C002162A284E284002513
:1033B0002564212084F83D00636B12489862636B9A
:1033C0001148D862636B11481863606B45632068CD
:1033D0001346001D666B02463046FEF71DFC216851
:1033E0006FF04000086084F83C502068416941F06B
:1033F000800141610020FEBDFFE70120FBE70220C4
:10340000F9E700006F4300089D430008B14200083F
:1034100070477047FEE710B500F03AFF102806D05D
:10342000202809D1BDE810400020FDF703BBBDE80E
:1034300010400120FDF7FEBA10BD0000F8B5FDF701
:10344000D7FC04462E4D287884420DD00020688099
:10345000A8802C4E012240213046FEF716FD0122A5
:1034600020213046FEF711FD4FF4C8704FF47A76F4
:10347000052C42D2DFE804F0031627303900C820BB
:1034800000901F483C2314221946801C00F0BEFA0D
:10349000A02000901A481E231A465021001DFDF757
:1034A0000FF92AE000901648642332221946801C46
:1034B00000F0ACFA1248322314221946001D00967F
:1034C000FDF7FEF819E00E48322314221946801C3D
:1034D000009600F09BFA10E0094850232822194674
:1034E000001D0096FDF7ECF807E000900448642307
:1034F00032221946801C00F089FA2C70F8BD0000B9
:103500001C000020000C014000F00CBA70470000C5
:10351000FEB500240094019402941A4818490160F1
:1035200089158160047304754FF46021C1614460A2
:1035300003260661FDF7EAFC08B1FDF746FA0094A0
:1035400001250195029469460E48FDF757FC08B124
:10355000FDF73BFA00950224019469460948FDF7FE
:103560004DFC08B1FDF731FA009401966946054813
:10357000FDF744FC002801D0FDF727FAFEBD00004E
:10358000002401408802002010B50F480D49016059
:103590000921416000218160C1604FF480220261F5
:1035A000920042610176417601228276C1760177EE
:1035B0004177FEF79AF8002803D0BDE81040FDF7E8
:1035C00004BA10BD00640040FC02002008B5114898
:1035D000416941F001014161406900F00100009042
:1035E000012211460B20FEF7C7FC0B20FEF7B6FCAC
:1035F000022201210C20FEF7BFFC0C20FEF7AEFCDE
:10360000032201210D20FEF7B7FCBDE808400D2084
:10361000FEF7A4BC001002402DE9F04186B0002462
:1036200002940394049405942F48816941F0200189
:103630008161816901F020010191816941F00401FA
:103640008161816901F004010191816941F0080102
:103650008161806900F008000190DFF8908001220C
:1036600010214046FEF711FC214F0122612138460E
:10367000FEF70BFC002241F282013846FEF705FC02
:10368000102002900125039504940226059602A9B4
:103690004046FEF7FBFA8120029003950494032034
:1036A000059002A93846FEF7F1FA41F26200029055
:1036B00003950494059602A93846FEF7E7FA04201C
:1036C00002900394049402A93846FEF7DFFA4FF4FF
:1036D000407002900394049502A93846FEF7D6FA8A
:1036E00006B0BDE8F0810000001002400008014073
:1036F000000C014010B511480F4901604FF4827170
:103700004160002181604FF40062C26002220261C8
:1037100001224261520282611022C2610162416251
:1037200081620A21C162FEF7ABFF002803D0BDE829
:103730001040FDF74AB910BD0030014024030020BD
:1037400010B596B000241294139414941594109408
:1037500011941C2109A8FCF7FEFC202101A8FCF70C
:10376000FAFC31482F4901604460202181604FF408
:10377000E161C1600461446180218161FFF778F9F2
:1037800008B1FDF722F94FF48050129012A9264893
:10379000FFF7E4F908B1FDF718F92348FFF798FBA4
:1037A00008B1FDF712F91094119410A91E48FFF703
:1037B0002BF908B1FDF709F9602009900A940B94E0
:1037C0000C940D940E940F94002209A91648FFF74B
:1037D00016FB08B1FDF7F9F8042209A91248FFF712
:1037E0000EFB08B1FDF7F1F8082209A90E48FFF712
:1037F00006FB08B1FDF7E9F80194029403940494E0
:1038000005944FF400500690089401A90648FFF76C
:10381000D1F808B1FDF7D9F80348FFF7C9FA16B097
:1038200010BD0000002C01407C03002010B50E4CA0
:103830000C4820604FF4E13060600020A060E06040
:1038400020610C216161A061E0612046FFF7D6FC98
:1038500008B1FDF7BAF82068C16841F01001C160F5
:1038600010BD000000480040EC030020FEE700000F
:10387000032202490248FDF71FBC0000A8010020F6
:10388000880200200748016801614268A2F2C972FB
:1038900042618168A1F2BF71816111444942C161F5
:1038A00070470000A80100200149886570470000AA
:1038B00040000020024601210148FEF7E6BA000060
:1038C000000C014001B582B0002001904FF47A70E5
:1038D0000090012301AA02A90248FEF763FFBDF888
:1038E00004000EBD2403002070B50546064C2A4690
:1038F0004FF480512046FEF7C8FA2A462046BDE81C
:1039000070400221FEF7C1BA000C0140014AD060AC
:103910009160704740000020014908657047000031
:103920004000002010B500210C48FFF7F9FA0421EF
:103930000A48FFF7F5FA08210848FFF7F1FA0748A7
:10394000002102685163026891630068C16300222C
:10395000BDE810401146104600F0F6B87C03002088
:10396000FEE77047FDF733B870B51B4E34681B4D4A
:10397000686800F5FA60844207D3287830B31848A5
:10398000FFF7CAFF002028706C603468A8680A300E
:10399000844202D300F08EFAAC603468E868401CC0
:1039A000844202D3FFF74AFDEC60346828690A308C
:1039B000844202D3FFF72FFD2C61346868690A3016
:1039C000844202D300F024FC6C6170BD0548FFF70F
:1039D000A3FF01202870D7E700000020040000208A
:1039E000CDCCFCFF6666020008B507494FF4FA52D9
:1039F0000968B1FBF2F14143009100BF0098411EFC
:103A00000091FAD208BD0000A401002030B4029D4C
:103A10000488AC421FD2641CA4B2048010488C42BB
:103A200004D2002230BC2021FEF72FBA11448C4270
:103A300004D2012230BC2021FEF727BA19448C425F
:103A400004D2002230BC2021FEF71FBA012230BC74
:103A50002021FEF71ABA0021018030BC7047000017
:103A6000000C014038B504460B460092002280212C
:103A7000204600F009F828B1606D40F02000606534
:103A8000032038BD002038BD2DE9F84304460F4619
:103A900091461E46089DFEF7FFF9401B351AFEF7BA
:103AA000FBF9804626480068C0F3CB30684300909D
:103AB0003AE0701C38D0FEF7EFF9A0EB0800A842FE
:103AC00003D215B1009858B32BE02068416821F06B
:103AD000E00141606068B0F5827F0BD1A068B0F56D
:103AE000004F02D0B0F5806F04D12068016821F04A
:103AF00040010160A06AB0F5005F09D1206801684B
:103B000021F4005101602068016841F40051016016
:103B1000012050346070002020700320BDE8F8833D
:103B200000250098401E00902068806837EA000059
:103B300004D000204845BCD10020EFE70120F9E780
:103B4000A4010020704700002DE9F0410D46144605
:103B5000002800DA00204FF0C846B04200DD3046B1
:103B6000FCF7E6FCDFF854804146FCF7FFFAFCF76F
:103B700062FB134F39684863002D00DA0025B54217
:103B800000DD35462846FCF7D3FC4146FCF7EEFA4B
:103B9000FCF751FB39688863002C00DA0024B4423A
:103BA00000DD34462046FCF7C3FC4146FCF7DEFA54
:103BB000FCF741FB3968C863BDE8F0810000904123
:103BC0007C0300202DE9F04104460F46B4F57A7FCE
:103BD00007D840F2E73648F6A040B0FBF4F56D1E7A
:103BE00004E000261248B0FBF4F56D1E2846FCF7F1
:103BF00004FB3946FCF7BAFAFCF71DFB0D490A68CD
:103C000050630A6890630A680020D0632CB90A6880
:103C100050630A6890630968C86307480660001D1E
:103C200005600549012014390860BDE8F0810000F5
:103C3000005125027C030020282C014070B5044669
:103C40002046FDF72BF854F8500FA06661686166B6
:103C5000401AE066216F411AA06DFCF703FC05468F
:103C6000E16EE06DFCF7FEFBA16F28440144A16703
:103C7000E06E2067E06F503C002801DA424200E02D
:103C80000246914205DD002800DA4042C4F8C8002F
:103C90000DE0002801DA424200E002465242914221
:103CA00005DA002800DA40424042C4F8C800207813
:103CB000012805D0BDE8704000210846FFF726BE68
:103CC000D4F8C800BDE8704041010020FFF71EBED7
:103CD00070B522490888B0F5FA6F01D2401C0880FF
:103CE0000A884FF07C544FF4FA75642A08D20120F8
:103CF000FCF7A0FE21462846BDE87040FFF762BFF2
:103D0000C82A05D22146BDE870400020FFF75ABFFF
:103D1000B2F5967F05D221462846BDE87040FFF7F0
:103D200051BFB2F5C87F05D22146BDE870400020E2
:103D3000FFF748BF4FF41670824204D22146BDE817
:103D40007040FFF73FBF0020FCF774FEBDE87040F5
:103D5000002144F62060FFF735BF00003E00002040
:103D600010B5074A10605160104600F055F804483D
:103D7000FCF7C0FFBDE81040014800F003B80000A8
:103D80004401002090F84C10072940D2DFE801F0F0
:103D90003F040E18222C3600C26A416A8B18016B50
:103DA0000B4443630A448263C16330E0D0E90B21D2
:103DB00053184363C3691A440A448263C16326E00B
:103DC000016B4163D0E9073213440B448363114410
:103DD000C1631CE0016B4163026A5318836383690A
:103DE0001A441144C16312E0826A016B53184363A1
:103DF000816383691A441144C16308E0D0E9091260
:103E00008B18016B0B44436381631144C1633430ED
:103E100007C8FFF799BE000070B504466068A0604F
:103E2000234D20682946FCF77BFB6168A0EB61000D
:103E3000E06029462068FCF773FB616800EB6100D5
:103E400042422261A068002801DD012000E000203C
:103E5000E168002901DD012100E00021002A01DDE7
:103E6000012200E00022920002EB41010844C0B2AE
:103E7000072808D2DFE800F007081804100C140027
:103E8000012084F84C0070BD022084F84C0070BD05
:103E9000032084F84C0070BD042084F84C0070BDF1
:103EA000052084F84C0070BD062084F84C0070BDDD
:103EB000D7B3DD0010B5084C2078002805D1214685
:103EC0004888C82802D2401C488010BD0348FEF72D
:103ED00013FE0320207010BD220000207C03002070
:103EE00002480168491C0160FDF7DCBF00000020AA
:103EF00030B593B0282109A8FCF72DF9142104A8A6
:103F0000FCF729F900240094019402940394012100
:103F1000099108040A900B940D91022510951190B7
:103F20004FF4E010129009A8FEF7E8F908B1FCF789
:103F30004CFD0F200490059506944FF48060079087
:103F40000894022104A8FEF7CFF808B1FCF73DFD64
:103F500000954FF4004002906846FEF73FF80028B5
:103F600001D0FCF732FD13B030BD704770B50E487C
:103F700000680068C00612D50C4C0025207840B1BE
:103F80002570FFF775FC6078132805D2401C60701F
:103F900005E001202070F6E76570FCF7A1FDBDE8A3
:103FA00070400148FEF74CBE7C03002096010020C3
:103FB000F0B50268164C174D174E4FF08047A042DF
:103FC00005D0B84203D0A84201D0B04203D122F0BC
:103FD00070034A681A43A04205D0B84203D0A842F1
:103FE00001D0B04203D122F44073CA681A434B692E
:103FF00022F080021A4302608A68C2620A68826202
:10400000A04201D10969016301214161F0BD0000B5
:10401000002C0140000400400008004010B501F0F1
:104020001F0101238B40046A9C430462036A8A4097
:104030001343036210BD10B5846824F47F4442EA40
:1040400003220A432243826010BD826822F070027C
:104050000A4342F0070181607047000030B5026AF0
:1040600022F001020262036A4268846924F070044B
:1040700024F003050C682C4323F002058B682B43C6
:104080000D4DA84206D123F00805CB6843EA05038D
:1040900023F0040309D122F4807222F400724D69E6
:1040A00045EA02058A6942EA05024260846149687C
:1040B0004163036230BD0000002C014030B5026A4C
:1040C00022F010020262036A4268846924F4E04428
:1040D00024F440740D6844EA052423F020038D681D
:1040E00043EA05130D4DA84206D123F08003CD68A5
:1040F00043EA051323F0400309D122F4806222F43D
:1041000000624D6942EA85028D6942EA8502426099
:10411000846149688163036230BD0000002C014066
:1041200030B5026A22F480720262036A4268C4698E
:1041300024F0700424F003050C682C4323F400736E
:104140008D6843EA05230D4DA84206D123F4006390
:10415000CD6843EA052323F4806309D122F4805219
:1041600022F400524D6942EA05128D6942EA0512B5
:104170004260C4614968C163036230BD002C0140E4
:1041800030B5026A22F480520262036A4268C4694E
:1041900024F4E04424F440740D6844EA052423F434
:1041A00000538D6843EA0533064DA84204D122F43A
:1041B00080424D6942EA85124260C46149680164E7
:1041C000036230BD002C014010B5036A046A24F07C
:1041D00001040462846924F0F00444EA021423F028
:1041E0000A020A438461026210BD10B5036A23F01B
:1041F000100303628469036A24F4704444EA0232BF
:1042000023F0A00343EA01118261016210BD0000A6
:104210002DE9F041DFF870804FF480714046FDF7E2
:104220002DFE40F22D150027184C6E1E98B16068C7
:10423000032801D91020207367604FF400714046B5
:10424000FDF71CFE98B1A068032801D92020207337
:10425000A760BDE8F0816168B14202D2491C61608B
:10426000EBE7B142E9D1656011202073E5E7A06872
:10427000B04202D2401CA060EBE7B042E9D1A56099
:1042800021202073E5E70000000C0140D801002048
:104290000249087B00220A7370470000D801002001
:1042A00010B5406A0021C185C184FEF7BEFE10BD75
:1042B00070B5446A20684069C0F3C01094F83D109E
:1042C0000025212904D118B1E584204600F090F89A
:1042D00020684069C0F3801094F83E10222904D170
:1042E00018B1E585204600F05EF8206C40F0100023
:1042F00020642046FEF799FE70BD10B50146486A5D
:104300000968096889061BD40021C1850168CA684B
:1043100022F48072CA6001684A6922F001024A618F
:1043200001684A6922F040024A61202180F83E106B
:10433000016B012904D10168CA6822F01002CA6029
:10434000016B012902D0FFF71AF810BD818DFEF72D
:104350003FFE10BD10B5406A016B012902D0FFF786
:104360000FF810BD818D4908FEF732FE10BD10B563
:104370000146486A0968096889060CD40021C1848D
:1043800001684A6922F080024A610068C16841F010
:104390004001C16010BDFFF73BF810BD10B5406A89
:1043A000FFF737F810BD0168CA6822F49072CA603E
:1043B00001684A6922F001024A61016B012904D1B6
:1043C0000168CA6822F01002CA60202180F83E10FD
:1043D00000210163704710B50168CA6822F04002ED
:1043E000CA60202180F83D10FFF712F8002010BDB0
:1043F0000168CA6822F0C002CA60202180F83D101E
:10440000704708B590F83E10222901D0022008BD5F
:1044100082684FF480539A4201D1016921B1816AC7
:104420009A421DD052B10BE0816A02685268C2F311
:1044300008020A80816A891C816209E002697AB1F6
:104440000268526802F07F020A70816A491C816228
:10445000C18D491E0904090CC18505D0002008BD85
:10446000026852680A70F0E70168CA6822F0200208
:10447000CA600168CA6822F48072CA6001684A6929
:1044800022F001024A61202180F83E10016B0129CF
:1044900003D0FEF774FF002008BD0021016301680E
:1044A000CA6822F01002CA6001680A68D20602D502
:1044B0000A6849680091818DFEF78AFDEBE70000EC
:1044C00070B5044620680169E26821F44051114347
:1044D0000161A16820690143606901432068C268E5
:1044E00041F20C639A430A43C26020684169A269A1
:1044F00021F44071114341611E492068884202D174
:10450000FDF7B2FE01E0FDF79FFE00EBC00101EBFD
:104510000010616864228900B0FBF1F3B3FBF2F391
:104520006FF018067343B0FBF1F5B0FBF1F605EB45
:104530008305322303EB0515B5FBF2F5B6FBF2F666
:1045400005F0F00505EB0615B0FBF1F6B0FBF1F058
:10455000B0FBF2F06FF01801484306EB800003EB6C
:104560000010B0FBF2F0216800F00F0028448860D2
:1045700070BD00000038014037B582B004461346D4
:10458000039AA262A38500252564222084F83E00B8
:10459000A16B13488862A16B1248C862A16B1248D4
:1045A0000863A06B45632168A06B091DFDF734FB10
:1045B000206801684168019184F83C50C16841F469
:1045C0008071C1602068416941F00101416120684A
:1045D000416941F04001416105B0002030BD00005B
:1045E000FB42000855430008B142000890F83D1016
:1045F000212901D0022070478168B1F5805F01D187
:10460000016961B1016A4A1C02620268097851605D
:10461000C18C491E0904090CC1840AD013E0016A47
:1046200002680988C1F308015160016A891C0162AE
:10463000EEE70168CA6822F08002CA600068C168BB
:1046400041F04001C16000207047000008B51548E6
:1046500000680168C943C9061ED40168406800901B
:104660001048FEF7B6FC104800684068C0F128000A
:1046700082B20E4802800E48C280012141710D496C
:104680000830FBF74FFD28210A48FBF764FD28227C
:1046900008490448FEF75CFEBDE808400148FEF703
:1046A000C5BC0000EC030020300400209401002071
:1046B00030020020C40300200148FCF718BF0000AE
:1046C000FC0200200648FE210170552141700A219C
:1046D0004180FD21017100214171C18070470000BE
:1046E0003002002070B5284C6079012823D10020C9
:1046F0006071207A217888421DD1607A6178884281
:1047000019D1A07A6288904215D1E01D2179105C00
:10471000884210D104F1080101F128000E46054637
:10472000FBF700FD28213046FBF715FDE2882946FE
:104730001648FEF727FEFCF727FAFBF763FD144D3A
:1047400000B2A880642290FBF2F1297090FBF2F392
:1047500002FB13020A2492FBF4F26A7090FBF4F35A
:1047600004FB1303AB703031A81D0170303242706E
:10477000303383700D21C1700471BDE87040014673
:1047800005220248FEF7FEBD30020020EC030020A7
:1047900032000020FEE70907090E002804DB00F1C3
:1047A000E02080F80014704700F00F0000F1E020D6
:1047B00080F8141D704702E008C8121F08C1002AC3
:1047C000FAD170477047002001E001C1121F002A92
:1047D000FBD1704710B50446E06AA0634FF000704B
:1047E000216BFBF79DFEE16A08440249FBF798FE46
:1047F000E06310BD3ACD930070B50446616AE06F86
:10480000FBF78EFE0546216AD4F8A000FBF788FE70
:10481000281A2064616AD4F8A000FBF781FE0546DF
:10482000216AE06FFBF77CFE2844606470BDFDF7F1
:1048300041FBFFF75DFBFEF7EFFEFEF7C7FEFEF75D
:1048400067FEFEF757FFFEF77BFFFEF7EFFFFEF771
:104850009BFEFBF723FFFBF72AFFFCE770B504463E
:10486000616AA06BFBF75CFE0546216AE06BFBF713
:1048700057FE2844E064616AE06BFBF751FE054691
:10488000216AA06BFBF74CFE281AA06470BD0000E3
:1048900000000000C60FC900101F9201622D5B02CC
:1048A000403A24032D45ED03AF4DB60448537F0530
:1048B0007E554806D3531107CC4DDA07EE42A308C4
:1048C000BB326C09B81C350A6900FE0A53DDC60B01
:1048D000F9B28F0CDF80580D8946210E7D03EA0E58
:1048E0003DB7B20F4E617B103501441175960C1225
:1048F0009320D512139F9D13791166144A772E15B4
:104900000BD0F6153E1BBF166A58871713874F1832
:10491000BCA61719EBB6DF1924B7A71AECA66F1BB4
:10492000C885371C3B53FF1CCC0EC71DFEB78E1E1F
:10493000574E561F5BD11D208F40E520799BAC213F
:104940009EE1732281123B23AA2D02249C32C924AA
:10495000DD209025F3F7562662B71D27B05EE427C9
:1049600062EDAA28FF6271290BBF372A0D01FE2ACA
:104970008928C42B06358A2C0A26502D1AFB152EA1
:10498000BDB3DB2E784FA12FD1CD6630502E2C3108
:104990007970F131D393B632E6977B33367C40346D
:1049A0004B400535ACE3C935DE658E366AC65237F5
:1049B000D5041738A720DB3866199F399AEE623A7A
:1049C000CB9F263B7E2CEA3B3C94AD3C8CD6703D85
:1049D000F6F2333E01E9F63E36B8B93F1B607C4043
:1049E00039E03E41183801423F67C342386D854384
:1049F0008B494744BFFB08455E83CA45F0DF8B46C1
:104A0000FD104D470F160E48AFEECE48659A8F4900
:104A1000BB18504A3A69104B6C8BD04BD97E904CE6
:104A20000C43504D8DD70F4EE83BCF4EA66F8E4FA7
:104A300050724D5072430C5195E2CA51444F895205
:104A40000A894753708F05540362C3544C00815543
:104A5000D7693E562E9EFB56DE9CB8577265755838
:104A600075F731597352EE59F775AA5A8E61665B24
:104A7000C414225C258FDD5C3DD0985D98D7535ED1
:104A8000C4A40E5F4E37C95FC18E8360ACAA3D617E
:104A90009B8AF7611B2EB162BB946A6308BE2364D4
:104AA0008FA9DC64DF56956585C54D6610F50567F1
:104AB0000FE5BD670F9575689F042D694F33E46955
:104AC000AE209B6A49CC516BB235086C775CBE6CEA
:104AD0002840746D54E0296E8C3CDF6E6054946FF6
:104AE000602749701DB5FD7026FDB1710EFF65721E
:104AF00065BA1973BC2ECD73A45B8074AF40337557
:104B00006EDDE57574319876523C4A779BFDFB77F4
:104B1000E074AD78B5A15E79AC830F7A581AC07A8B
:104B20004C65707B1B64207C5916D07C997B7F7D03
:104B300070932E7E715DDD7E30D98B7F41063A8089
:104B40003AE4E780AF72958135B14282629FEF828D
:104B5000C93C9C8302894884A183F4843C2CA085B1
:104B60006B824B86C285F686D935A18747924B88E2
:104B7000A19AF5887F4E9F897AAD488A27B7F18A36
:104B80001F6B9A8BFAC8428C50D0EA8CB980928DF8
:104B9000CDD9398E27DBE08E5E84878F0CD52D90A2
:104BA000CACCD390316B7991DDAF1E92669AC392D5
:104BB000672A68937A5F0C943B39B09444B7539555
:104BC00030D9F6959A9E99961F073C975A12DE9710
:104BD000E7BF7F98620F21996800C2999692629A06
:104BE00088C5029BDC98A29B2F0C429C1F1FE19C56
:104BF00049D17F9D4C221E9EC611BC9E569F599F37
:104C00009ACAF69F329393A0BCF82FA1D9FACBA1F0
:104C1000289967A249D302A3DDA89DA3831938A4CC
:104C2000DD24D2A48BCA6BA52F0A05A66BE39DA633
:104C3000DF5536A72E61CEA7FB0466A8E740FDA886
:104C4000951494A9A97F2AAAC581C0AA8D1A56AB2A
:104C5000A449EBABB00E80AC536914AD3259A8AD8A
:104C6000F3DD3BAE3AF7CEAEACA461AFEFE5F3AF08
:104C7000A9BA85B07F2217B1191DA8B11CAA38B2F4
:104C800030C9C8B2FB7958B325BCE7B3558F76B4A9
:104C900034F304B569E792B59E6B20B67A7FADB662
:104CA000A7223AB7CE54C6B7991552B8B064DDB84A
:104CB000BF4168B970ACF2B96DA47CBA622906BB79
:104CC000F83A8FBBDDD817BCBA02A0BC3EB827BDEE
:104CD00013F9AEBDE7C435BE661BBCBE3EFC41BF8A
:104CE0001B67C7BFAB5B4CC09ED9D0C0A0E054C10E
:104CF0006070D8C18D885BC2D728DEC2ED5060C31A
:104D00007E00E2C33A3763C4D2F4E3C4F73864C523
:104D10005903E4C5A95363C69929E2C6DA8460C77A
:104D20001F65DEC71BCA5BC87FB3D8C8FE2055C944
:104D30004D12D1C91D874CCA247FC7CA16FA41CB70
:104D4000A6F7BBCB8A7735CC7779AECC21FD26CDC3
:104D500040029FCD888816CEAF8F8DCE6E1704CFC0
:104D6000791F7ACF8AA7EFCF56AF64D09636D9D0C5
:104D7000023D4DD153C2C0D141C633D28548A6D2DF
:104D8000D84818D3F5C689D395C2FAD3733B6BD4F0
:104D90004831DBD4D1A34AD5C992B9D5EAFD27D68B
:104DA000F1E495D69A4703D7A22570D7C57EDCD704
:104DB000C15248D852A1B3D8386A1ED930AD88D96B
:104DC000F869F2D94FA05BDAF54FC4DAA8782CDB8A
:104DD000291A94DB3734FBDB94C661DCFFD0C7DCD7
:104DE0003A532DDD064D92DD25BEF6DD58A65ADE7E
:104DF0006305BEDE09DB20DF0B2783DF2DE9E4DF5F
:104E0000342146E0E2CEA6E0FDF106E14A8A66E101
:104E10008C97C5E18A1924E2091082E2D07ADFE298
:104E2000A4593CE34DAC98E39172F4E338AC4FE401
:104E30000A59AAE4CE7804E54D0B5EE55010B7E5BB
:104E4000A0870FE6067167E64CCCBEE63D9915E7F4
:104E5000A2D76BE74687C1E7F6A716E87B396BE870
:104E6000A23BBFE837AE12E9079165E9DEE3B7E997
:104E70008AA609EAD9D85AEA977AABEA948BFBEA70
:104E80009E0B4BEB84FA99EB1658E8EB222436EC98
:104E90007A5E83ECEC06D0EC4B1D1CED67A167ED50
:104EA0001293B2ED1DF2FCED5ABE46EE9CF78FEE6A
:104EB000B69DD8EE7BB020EFBF2F68EF551BAFEF4C
:104EC0001173F5EFC9363BF0516680F07F01C5F0F4
:104ED000280809F1227A4CF144578FF1649FD1F1EF
:104EE000595213F2FC6F54F224F894F2A8EAD4F267
:104EF000624714F32B0E53F3DB3E91F34DD9CEF3FF
:104F00005ADD0BF4DD4A48F4B12184F4B061BFF4FA
:104F1000B60AFAF49F1C34F547976DF58B7AA6F51F
:104F200047C6DEF5597A16F69E964DF6F51A84F6C2
:104F30003B07BAF6505BEFF6131724F7633A58F7BE
:104F40001FC58BF729B7BEF76010F1F7A6D022F87E
:104F5000DDF753F8E48584F8A07AB4F8F1D5E3F8E6
:104F6000BC9712F9E2BF40F9484E6EF9D2429BF964
:104F7000639DC7F9E15DF3F930841EFA361049FAF2
:104F8000D80173FAFD589CFA8C15C5FA6A37EDFA08
:104F900080BE14FBB4AA3BFBF0FB61FB1AB287FB9B
:104FA0001DCDACFBE14CD1FB4F31F5FB527A18FC27
:104FB000D4273BFCBE395DFCFDAF7EFC7C8A9FFCA8
:104FC00026C9BFFCE86BDFFCAD72FEFC64DD1CFD96
:104FD000F8AB3AFD58DE57FD727474FD346E90FDE7
:104FE0008DCBABFD6B8CC6FDBFB0E0FD7838FAFD14
:104FF000872313FEDC712BFE682343FE1D385AFE07
:10500000EBAF70FEC78A86FEA1C89BFE6D69B0FE3D
:105010001F6DC4FEA9D3D7FE009DEAFE18C9FCFE91
:10502000E6570EFF5F491FFF799D2FFF2A543FFF70
:10503000686D4EFF2AE95CFF66C76AFF140878FFB7
:105040002CAB84FFA7B090FF7C189CFFA6E2A6FFC4
:105050001C0FB1FFD99DBAFFD78EC3FF10E2CBFF63
:105060008097D3FF21AFDAFFF028E1FFE704E7FFE5
:105070000443ECFF44E3F0FFA2E5F4FF1E4AF8FF0F
:10508000B510FBFF6539FDFF2CC4FEFF0BB1FFFF20
:10509000FFFFFFFF0000000000000000010203040A
:1050A000060708090000000001020304CC500008B4
:1050B00000000020A8010000F0020008E8500008ED
:1050C000A801002010070000C64700080147920B06
:1050D0000315A6E002FF03011F3664AE0A6F0E82BD
:0850E0000C320182101324F4CC
:04000005080000ED02
:00000001FF
